{
  "contracts/TokenStaking.sol": {
    "TokenStaking": {
      "abi": [
        {
          "inputs": [
            {
              "internalType": "contract WakaToken",
              "name": "_waka",
              "type": "address"
            },
            {
              "internalType": "uint256",
              "name": "_startStamp",
              "type": "uint256"
            }
          ],
          "stateMutability": "nonpayable",
          "type": "constructor"
        },
        {
          "anonymous": false,
          "inputs": [
            {
              "indexed": true,
              "internalType": "address",
              "name": "user",
              "type": "address"
            },
            {
              "indexed": true,
              "internalType": "uint256",
              "name": "pid",
              "type": "uint256"
            },
            {
              "indexed": false,
              "internalType": "uint256",
              "name": "amount",
              "type": "uint256"
            }
          ],
          "name": "Deposit",
          "type": "event"
        },
        {
          "anonymous": false,
          "inputs": [
            {
              "indexed": true,
              "internalType": "address",
              "name": "user",
              "type": "address"
            },
            {
              "indexed": true,
              "internalType": "uint256",
              "name": "pid",
              "type": "uint256"
            },
            {
              "indexed": false,
              "internalType": "uint256",
              "name": "amount",
              "type": "uint256"
            }
          ],
          "name": "EmergencyWithdraw",
          "type": "event"
        },
        {
          "anonymous": false,
          "inputs": [
            {
              "indexed": true,
              "internalType": "address",
              "name": "caller",
              "type": "address"
            },
            {
              "indexed": false,
              "internalType": "uint256",
              "name": "previousAmount",
              "type": "uint256"
            },
            {
              "indexed": false,
              "internalType": "uint256",
              "name": "newAmount",
              "type": "uint256"
            }
          ],
          "name": "EmissionRateUpdated",
          "type": "event"
        },
        {
          "anonymous": false,
          "inputs": [
            {
              "indexed": true,
              "internalType": "address",
              "name": "previousOwner",
              "type": "address"
            },
            {
              "indexed": true,
              "internalType": "address",
              "name": "newOwner",
              "type": "address"
            }
          ],
          "name": "OwnershipTransferred",
          "type": "event"
        },
        {
          "anonymous": false,
          "inputs": [
            {
              "indexed": true,
              "internalType": "address",
              "name": "user",
              "type": "address"
            },
            {
              "indexed": true,
              "internalType": "uint256",
              "name": "pid",
              "type": "uint256"
            },
            {
              "indexed": false,
              "internalType": "uint256",
              "name": "amountLockedUp",
              "type": "uint256"
            }
          ],
          "name": "RewardLockedUp",
          "type": "event"
        },
        {
          "anonymous": false,
          "inputs": [
            {
              "indexed": true,
              "internalType": "address",
              "name": "user",
              "type": "address"
            },
            {
              "indexed": true,
              "internalType": "uint256",
              "name": "pid",
              "type": "uint256"
            },
            {
              "indexed": false,
              "internalType": "uint256",
              "name": "amount",
              "type": "uint256"
            }
          ],
          "name": "Withdraw",
          "type": "event"
        },
        {
          "inputs": [],
          "name": "BONUS_MULTIPLIER",
          "outputs": [
            {
              "internalType": "uint256",
              "name": "",
              "type": "uint256"
            }
          ],
          "stateMutability": "view",
          "type": "function"
        },
        {
          "inputs": [
            {
              "internalType": "contract IERC20",
              "name": "_lpToken",
              "type": "address"
            },
            {
              "internalType": "bool",
              "name": "_withUpdate",
              "type": "bool"
            }
          ],
          "name": "add",
          "outputs": [],
          "stateMutability": "nonpayable",
          "type": "function"
        },
        {
          "inputs": [
            {
              "internalType": "uint256",
              "name": "_pid",
              "type": "uint256"
            },
            {
              "internalType": "uint256",
              "name": "_amount",
              "type": "uint256"
            }
          ],
          "name": "deposit",
          "outputs": [],
          "stateMutability": "nonpayable",
          "type": "function"
        },
        {
          "inputs": [
            {
              "internalType": "uint256",
              "name": "_pid",
              "type": "uint256"
            }
          ],
          "name": "emergencyWithdraw",
          "outputs": [],
          "stateMutability": "nonpayable",
          "type": "function"
        },
        {
          "inputs": [
            {
              "internalType": "uint256",
              "name": "_from",
              "type": "uint256"
            },
            {
              "internalType": "uint256",
              "name": "_to",
              "type": "uint256"
            }
          ],
          "name": "getMultiplier",
          "outputs": [
            {
              "internalType": "uint256",
              "name": "",
              "type": "uint256"
            }
          ],
          "stateMutability": "pure",
          "type": "function"
        },
        {
          "inputs": [],
          "name": "massUpdatePools",
          "outputs": [],
          "stateMutability": "nonpayable",
          "type": "function"
        },
        {
          "inputs": [],
          "name": "owner",
          "outputs": [
            {
              "internalType": "address",
              "name": "",
              "type": "address"
            }
          ],
          "stateMutability": "view",
          "type": "function"
        },
        {
          "inputs": [
            {
              "internalType": "uint256",
              "name": "_pid",
              "type": "uint256"
            },
            {
              "internalType": "address",
              "name": "_user",
              "type": "address"
            }
          ],
          "name": "pendingWaka",
          "outputs": [
            {
              "internalType": "uint256",
              "name": "",
              "type": "uint256"
            }
          ],
          "stateMutability": "view",
          "type": "function"
        },
        {
          "inputs": [
            {
              "internalType": "uint256",
              "name": "",
              "type": "uint256"
            }
          ],
          "name": "poolInfo",
          "outputs": [
            {
              "internalType": "contract IERC20",
              "name": "lpToken",
              "type": "address"
            },
            {
              "internalType": "uint256",
              "name": "lastRewardStamp",
              "type": "uint256"
            },
            {
              "internalType": "uint256",
              "name": "accWakaPerShare",
              "type": "uint256"
            },
            {
              "internalType": "uint256",
              "name": "totalDeposits",
              "type": "uint256"
            },
            {
              "internalType": "uint256",
              "name": "totalRewarded",
              "type": "uint256"
            }
          ],
          "stateMutability": "view",
          "type": "function"
        },
        {
          "inputs": [],
          "name": "poolLength",
          "outputs": [
            {
              "internalType": "uint256",
              "name": "",
              "type": "uint256"
            }
          ],
          "stateMutability": "view",
          "type": "function"
        },
        {
          "inputs": [],
          "name": "renounceOwnership",
          "outputs": [],
          "stateMutability": "nonpayable",
          "type": "function"
        },
        {
          "inputs": [],
          "name": "rewardContract",
          "outputs": [
            {
              "internalType": "address",
              "name": "",
              "type": "address"
            }
          ],
          "stateMutability": "view",
          "type": "function"
        },
        {
          "inputs": [
            {
              "internalType": "address",
              "name": "_rewardContract",
              "type": "address"
            }
          ],
          "name": "setRewardContract",
          "outputs": [],
          "stateMutability": "nonpayable",
          "type": "function"
        },
        {
          "inputs": [
            {
              "internalType": "uint256",
              "name": "_unstakingFeePeriod",
              "type": "uint256"
            }
          ],
          "name": "setUnstakingFeePeriod",
          "outputs": [],
          "stateMutability": "nonpayable",
          "type": "function"
        },
        {
          "inputs": [],
          "name": "startStamp",
          "outputs": [
            {
              "internalType": "uint256",
              "name": "",
              "type": "uint256"
            }
          ],
          "stateMutability": "view",
          "type": "function"
        },
        {
          "inputs": [],
          "name": "totalLockedUpRewards",
          "outputs": [
            {
              "internalType": "uint256",
              "name": "",
              "type": "uint256"
            }
          ],
          "stateMutability": "view",
          "type": "function"
        },
        {
          "inputs": [
            {
              "internalType": "address",
              "name": "newOwner",
              "type": "address"
            }
          ],
          "name": "transferOwnership",
          "outputs": [],
          "stateMutability": "nonpayable",
          "type": "function"
        },
        {
          "inputs": [
            {
              "internalType": "uint256",
              "name": "_pid",
              "type": "uint256"
            },
            {
              "internalType": "uint256",
              "name": "_amount",
              "type": "uint256"
            }
          ],
          "name": "transferStakedTokens",
          "outputs": [],
          "stateMutability": "nonpayable",
          "type": "function"
        },
        {
          "inputs": [],
          "name": "unstakingFeePeriod",
          "outputs": [
            {
              "internalType": "uint256",
              "name": "",
              "type": "uint256"
            }
          ],
          "stateMutability": "view",
          "type": "function"
        },
        {
          "inputs": [
            {
              "internalType": "uint256",
              "name": "_pid",
              "type": "uint256"
            }
          ],
          "name": "updatePool",
          "outputs": [],
          "stateMutability": "nonpayable",
          "type": "function"
        },
        {
          "inputs": [
            {
              "internalType": "uint256",
              "name": "",
              "type": "uint256"
            },
            {
              "internalType": "address",
              "name": "",
              "type": "address"
            }
          ],
          "name": "userInfo",
          "outputs": [
            {
              "internalType": "uint256",
              "name": "amount",
              "type": "uint256"
            },
            {
              "internalType": "uint256",
              "name": "rewardDebt",
              "type": "uint256"
            },
            {
              "internalType": "uint256",
              "name": "rewardLockedUp",
              "type": "uint256"
            },
            {
              "internalType": "uint256",
              "name": "stakedTime",
              "type": "uint256"
            }
          ],
          "stateMutability": "view",
          "type": "function"
        },
        {
          "inputs": [],
          "name": "waka",
          "outputs": [
            {
              "internalType": "contract WakaToken",
              "name": "",
              "type": "address"
            }
          ],
          "stateMutability": "view",
          "type": "function"
        },
        {
          "inputs": [
            {
              "internalType": "uint256",
              "name": "_pid",
              "type": "uint256"
            },
            {
              "internalType": "uint256",
              "name": "_amount",
              "type": "uint256"
            }
          ],
          "name": "withdraw",
          "outputs": [],
          "stateMutability": "nonpayable",
          "type": "function"
        }
      ],
      "evm": {
        "bytecode": {
          "linkReferences": {},
          "object": "6080604052612a306008553480156200001757600080fd5b5060405162001acf38038062001acf8339810160408190526200003a91620000d0565b6200004e620000486200007c565b62000080565b60018055600280546001600160a01b0319166001600160a01b0393909316929092179091556005556200010a565b3390565b600080546001600160a01b038381166001600160a01b0319831681178455604051919092169283917f8be0079c531659141344cd1fd0a4f28419497f9722a3daafe3b4186f6b6457e09190a35050565b60008060408385031215620000e3578182fd5b82516001600160a01b0381168114620000fa578283fd5b6020939093015192949293505050565b6119b5806200011a6000396000f3fe608060405234801561001057600080fd5b506004361061018d5760003560e01c80636ea69d62116100e357806393f1a40b1161008c578063dccd4d6911610066578063dccd4d69146102f1578063e2bbb158146102f9578063f2fde38b1461030c5761018d565b806393f1a40b146102b35780639be885e5146102d6578063d49bc65e146102de5761018d565b80638aa28550116100bd5780638aa28550146102905780638da5cb5b146102985780638dbb1e3a146102a05761018d565b80636ea69d6214610260578063715018a61461027557806378d504501461027d5761018d565b806351508f0a116101455780635540421b1161011f5780635540421b1461023d578063630b5ba1146102455780636e9834661461024d5761018d565b806351508f0a1461020457806351eb05a6146102175780635312ea8e1461022a5761018d565b80631ce529cb116101765780631ce529cb146101d4578063441a3e70146101e9578063474fa630146101fc5761018d565b8063081e3eda146101925780631526fe27146101b0575b600080fd5b61019a61031f565b6040516101a7919061186d565b60405180910390f35b6101c36101be3660046114a7565b610325565b6040516101a7959493929190611589565b6101e76101e23660046114a7565b610370565b005b6101e76101f73660046114fb565b6103a6565b61019a61062d565b6101e7610212366004611437565b610633565b6101e76102253660046114a7565b61067d565b6101e76102383660046114a7565b6107e9565b61019a6108ef565b6101e76108f5565b6101e761025b36600461146f565b610920565b610268610a76565b6040516101a79190611538565b6101e7610a85565b61019a61028b3660046114d7565b610a99565b61019a610c60565b610268610c65565b61019a6102ae3660046114fb565b610c74565b6102c66102c13660046114d7565b610c92565b6040516101a79493929190611876565b61019a610cc4565b6101e76102ec3660046114fb565b610cca565b610268610d49565b6101e76103073660046114fb565b610d58565b6101e761031a366004611437565b610f39565b60035490565b6003818154811061033557600080fd5b6000918252602090912060059091020180546001820154600283015460038401546004909401546001600160a01b0390931694509092909185565b610378610f70565b600081116103a15760405162461bcd60e51b8152600401610398906117d9565b60405180910390fd5b600855565b600260015414156103c95760405162461bcd60e51b815260040161039890611836565b60026001556007546001600160a01b03166103e357600080fd5b60006003838154811061040657634e487b7160e01b600052603260045260246000fd5b60009182526020808320868452600482526040808520338652909252922080546005909202909201925083111561044f5760405162461bcd60e51b815260040161039890611745565b6104588461067d565b6000610492826001015461048c64e8d4a5100061048687600201548760000154610faf90919063ffffffff16565b90610fbb565b90610fc7565b905083156105c65760008111806104ad575060008260020154115b1561051d5760006104cb836002015483610fd390919063ffffffff16565b90506104e68360020154600654610fc790919063ffffffff16565b60065560006002840155600754610507906001600160a01b03163383610fdf565b60048401546105169082610fd3565b6004850155505b6008546003830154610530904290610fc7565b101561058e57600061054d610546866064610fbb565b8690610fc7565b600385015490915061055f9086610fc7565b600385015582546105709086610fc7565b83558354610588906001600160a01b03163383611184565b506105c6565b600383015461059d9085610fc7565b600384015581546105ae9085610fc7565b825582546105c6906001600160a01b03163386611184565b600283015482546105e19164e8d4a510009161048691610faf565b6001830155604051859033907ff279e6a1f5e320cca91135676d9cb6e44ca8a08c0b88342bcdb1144f6511b5689061061a90889061186d565b60405180910390a3505060018055505050565b60065481565b61063b610f70565b6001600160a01b03811661064e57600080fd5b6007805473ffffffffffffffffffffffffffffffffffffffff19166001600160a01b0392909216919091179055565b6007546001600160a01b031661069257600080fd5b6000600382815481106106b557634e487b7160e01b600052603260045260246000fd5b90600052602060002090600502019050806001015442116106d657506107e6565b6003810154806106ed5750426001909101556107e6565b60006106fd836001015442610c74565b6002546007546040516370a0823160e01b81529293506000926001600160a01b03928316926370a082319261073792911690600401611538565b60206040518083038186803b15801561074f57600080fd5b505afa158015610763573d6000803e3d6000fd5b505050506040513d601f19601f8201168201806040525081019061078791906114bf565b905060006107a0610e106104866018818661016d610fbb565b905060006107ae8483610faf565b90506107d16107c6866104868464e8d4a51000610faf565b600288015490610fd3565b60028701555050426001909401939093555050505b50565b6002600154141561080c5760405162461bcd60e51b815260040161039890611836565b600260018190555060006003828154811061083757634e487b7160e01b600052603260045260246000fd5b6000918252602080832085845260048252604080852033808752935284208054858255600182018690556002820186905560038201959095556005909302018054909450919291610895916001600160a01b03919091169083611184565b60038301546108a49082610fc7565b6003840155604051849033907fbb757047c2b5f3974fe26b7c10f732e7bce710b0952a71082702781e62ae0595906108dd90859061186d565b60405180910390a35050600180555050565b60055481565b60035460005b8181101561091c5761090c8161067d565b6109158161192b565b90506108fb565b5050565b610928610f70565b8015610936576109366108f5565b600060055442116109495760055461094b565b425b6040805160a0810182526001600160a01b039586168152602081019283526000918101828152606082018381526080830184815260038054600181018255955292517fc2575a0e9e593c00f959f8c92f12db2869c3395a3b0502d05e2516446f71f85b6005909502948501805473ffffffffffffffffffffffffffffffffffffffff1916919099161790975592517fc2575a0e9e593c00f959f8c92f12db2869c3395a3b0502d05e2516446f71f85c83015591517fc2575a0e9e593c00f959f8c92f12db2869c3395a3b0502d05e2516446f71f85d82015593517fc2575a0e9e593c00f959f8c92f12db2869c3395a3b0502d05e2516446f71f85e850155517fc2575a0e9e593c00f959f8c92f12db2869c3395a3b0502d05e2516446f71f85f909301929092555050565b6007546001600160a01b031681565b610a8d610f70565b610a976000611207565b565b6007546000906001600160a01b0316610ab157600080fd5b600060038481548110610ad457634e487b7160e01b600052603260045260246000fd5b600091825260208083208784526004825260408085206001600160a01b03891686529092529220600260059092029092019081015460038201546001830154929450909142118015610b2557508015155b15610c11576000610b3a856001015442610c74565b6002546007546040516370a0823160e01b81529293506000926001600160a01b03928316926370a0823192610b7492911690600401611538565b60206040518083038186803b158015610b8c57600080fd5b505afa158015610ba0573d6000803e3d6000fd5b505050506040513d601f19601f82011682018060405250810190610bc491906114bf565b90506000610bdd610e106104866018818661016d610fbb565b90506000610beb8483610faf565b9050610c0a610c03866104868464e8d4a51000610faf565b8790610fd3565b9550505050505b6000610c3b846001015461048c64e8d4a51000610486878960000154610faf90919063ffffffff16565b9050610c54846002015482610fd390919063ffffffff16565b98975050505050505050565b600181565b6000546001600160a01b031690565b6000610c8b6001610c858486610fc7565b90610faf565b9392505050565b600460209081526000928352604080842090915290825290208054600182015460028301546003909301549192909184565b60085481565b610cd2610f70565b60008111610cf25760405162461bcd60e51b8152600401610398906116d9565b600060038381548110610d1557634e487b7160e01b600052603260045260246000fd5b600091825260209091206007546005909202018054909250610d44916001600160a01b03918216911684611184565b505050565b6002546001600160a01b031681565b60026001541415610d7b5760405162461bcd60e51b815260040161039890611836565b60026001556007546001600160a01b0316610d9557600080fd5b600060038381548110610db857634e487b7160e01b600052603260045260246000fd5b60009182526020808320868452600482526040808520338652909252922060059091029091019150610de98461067d565b6000610e17826001015461048c64e8d4a5100061048687600201548760000154610faf90919063ffffffff16565b90506000811180610e2c575060008260020154115b15610e9c576000610e4a836002015483610fd390919063ffffffff16565b9050610e658360020154600654610fc790919063ffffffff16565b60065560006002840155600754610e86906001600160a01b03163383610fdf565b6004840154610e959082610fd3565b6004850155505b8315610ee5578254610eb9906001600160a01b0316333087611264565b8154610ec59085610fd3565b82556003830154610ed69085610fd3565b60038085019190915542908301555b60028301548254610f009164e8d4a510009161048691610faf565b6001830155604051859033907f90890809c654f11d6e72a28fa60149770a0d11ec6c92319d6ceb2bb0a4ea1a159061061a90889061186d565b610f41610f70565b6001600160a01b038116610f675760405162461bcd60e51b8152600401610398906115ea565b6107e681611207565b610f78611285565b6001600160a01b0316610f89610c65565b6001600160a01b031614610a975760405162461bcd60e51b8152600401610398906116a4565b6000610c8b82846118c9565b6000610c8b82846118a9565b6000610c8b82846118e8565b6000610c8b8284611891565b6002546040516370a0823160e01b81526000916001600160a01b0316906370a0823190611010908790600401611538565b60206040518083038186803b15801561102857600080fd5b505afa15801561103c573d6000803e3d6000fd5b505050506040513d601f19601f8201168201806040525081019061106091906114bf565b9050808211156110f6576002546040516323b872dd60e01b81526001600160a01b03909116906323b872dd9061109e9087908790869060040161154c565b602060405180830381600087803b1580156110b857600080fd5b505af11580156110cc573d6000803e3d6000fd5b505050506040513d601f19601f820116820180604052508101906110f09190611453565b5061117e565b6002546040516323b872dd60e01b81526001600160a01b03909116906323b872dd9061112a9087908790879060040161154c565b602060405180830381600087803b15801561114457600080fd5b505af1158015611158573d6000803e3d6000fd5b505050506040513d601f19601f8201168201806040525081019061117c9190611453565b505b50505050565b610d448363a9059cbb60e01b84846040516024016111a3929190611570565b60408051601f198184030181529190526020810180517bffffffffffffffffffffffffffffffffffffffffffffffffffffffff167fffffffff0000000000000000000000000000000000000000000000000000000090931692909217909152611289565b600080546001600160a01b0383811673ffffffffffffffffffffffffffffffffffffffff19831681178455604051919092169283917f8be0079c531659141344cd1fd0a4f28419497f9722a3daafe3b4186f6b6457e09190a35050565b61117e846323b872dd60e01b8585856040516024016111a39392919061154c565b3390565b60006112de826040518060400160405280602081526020017f5361666545524332303a206c6f772d6c6576656c2063616c6c206661696c6564815250856001600160a01b03166113189092919063ffffffff16565b805190915015610d4457808060200190518101906112fc9190611453565b610d445760405162461bcd60e51b81526004016103989061177c565b6060611327848460008561132f565b949350505050565b6060824710156113515760405162461bcd60e51b815260040161039890611647565b61135a856113ef565b6113765760405162461bcd60e51b81526004016103989061170e565b600080866001600160a01b03168587604051611392919061151c565b60006040518083038185875af1925050503d80600081146113cf576040519150601f19603f3d011682016040523d82523d6000602084013e6113d4565b606091505b50915091506113e48282866113fe565b979650505050505050565b6001600160a01b03163b151590565b6060831561140d575081610c8b565b82511561141d5782518084602001fd5b8160405162461bcd60e51b815260040161039891906115b7565b600060208284031215611448578081fd5b8135610c8b8161195c565b600060208284031215611464578081fd5b8151610c8b81611971565b60008060408385031215611481578081fd5b823561148c8161195c565b9150602083013561149c81611971565b809150509250929050565b6000602082840312156114b8578081fd5b5035919050565b6000602082840312156114d0578081fd5b5051919050565b600080604083850312156114e9578182fd5b82359150602083013561149c8161195c565b6000806040838503121561150d578182fd5b50508035926020909101359150565b6000825161152e8184602087016118ff565b9190910192915050565b6001600160a01b0391909116815260200190565b6001600160a01b039384168152919092166020820152604081019190915260600190565b6001600160a01b03929092168252602082015260400190565b6001600160a01b03959095168552602085019390935260408401919091526060830152608082015260a00190565b60006020825282518060208401526115d68160408501602087016118ff565b601f01601f19169190910160400192915050565b60208082526026908201527f4f776e61626c653a206e6577206f776e657220697320746865207a65726f206160408201527f6464726573730000000000000000000000000000000000000000000000000000606082015260800190565b60208082526026908201527f416464726573733a20696e73756666696369656e742062616c616e636520666f60408201527f722063616c6c0000000000000000000000000000000000000000000000000000606082015260800190565b6020808252818101527f4f776e61626c653a2063616c6c6572206973206e6f7420746865206f776e6572604082015260600190565b6020808252818101527f5472616e736665723a204e6f2062616c616e636520746f207472616e73666572604082015260600190565b6020808252601d908201527f416464726573733a2063616c6c20746f206e6f6e2d636f6e7472616374000000604082015260600190565b60208082526012908201527f77697468647261773a206e6f7420676f6f640000000000000000000000000000604082015260600190565b6020808252602a908201527f5361666545524332303a204552433230206f7065726174696f6e20646964206e60408201527f6f74207375636365656400000000000000000000000000000000000000000000606082015260800190565b60208082526030908201527f556e7374616b696e672066656520706572696f642073686f756c64206265206760408201527f726561746572207468616e207a65726f00000000000000000000000000000000606082015260800190565b6020808252601f908201527f5265656e7472616e637947756172643a207265656e7472616e742063616c6c00604082015260600190565b90815260200190565b93845260208401929092526040830152606082015260800190565b600082198211156118a4576118a4611946565b500190565b6000826118c457634e487b7160e01b81526012600452602481fd5b500490565b60008160001904831182151516156118e3576118e3611946565b500290565b6000828210156118fa576118fa611946565b500390565b60005b8381101561191a578181015183820152602001611902565b8381111561117e5750506000910152565b600060001982141561193f5761193f611946565b5060010190565b634e487b7160e01b600052601160045260246000fd5b6001600160a01b03811681146107e657600080fd5b80151581146107e657600080fdfea26469706673582212209afdfb42158f4210ac388610eb597cfc948b7b37e3745092b808fdf29a786a0f64736f6c63430008010033",
          "opcodes": "PUSH1 0x80 PUSH1 0x40 MSTORE PUSH2 0x2A30 PUSH1 0x8 SSTORE CALLVALUE DUP1 ISZERO PUSH3 0x17 JUMPI PUSH1 0x0 DUP1 REVERT JUMPDEST POP PUSH1 0x40 MLOAD PUSH3 0x1ACF CODESIZE SUB DUP1 PUSH3 0x1ACF DUP4 CODECOPY DUP2 ADD PUSH1 0x40 DUP2 SWAP1 MSTORE PUSH3 0x3A SWAP2 PUSH3 0xD0 JUMP JUMPDEST PUSH3 0x4E PUSH3 0x48 PUSH3 0x7C JUMP JUMPDEST PUSH3 0x80 JUMP JUMPDEST PUSH1 0x1 DUP1 SSTORE PUSH1 0x2 DUP1 SLOAD PUSH1 0x1 PUSH1 0x1 PUSH1 0xA0 SHL SUB NOT AND PUSH1 0x1 PUSH1 0x1 PUSH1 0xA0 SHL SUB SWAP4 SWAP1 SWAP4 AND SWAP3 SWAP1 SWAP3 OR SWAP1 SWAP2 SSTORE PUSH1 0x5 SSTORE PUSH3 0x10A JUMP JUMPDEST CALLER SWAP1 JUMP JUMPDEST PUSH1 0x0 DUP1 SLOAD PUSH1 0x1 PUSH1 0x1 PUSH1 0xA0 SHL SUB DUP4 DUP2 AND PUSH1 0x1 PUSH1 0x1 PUSH1 0xA0 SHL SUB NOT DUP4 AND DUP2 OR DUP5 SSTORE PUSH1 0x40 MLOAD SWAP2 SWAP1 SWAP3 AND SWAP3 DUP4 SWAP2 PUSH32 0x8BE0079C531659141344CD1FD0A4F28419497F9722A3DAAFE3B4186F6B6457E0 SWAP2 SWAP1 LOG3 POP POP JUMP JUMPDEST PUSH1 0x0 DUP1 PUSH1 0x40 DUP4 DUP6 SUB SLT ISZERO PUSH3 0xE3 JUMPI DUP2 DUP3 REVERT JUMPDEST DUP3 MLOAD PUSH1 0x1 PUSH1 0x1 PUSH1 0xA0 SHL SUB DUP2 AND DUP2 EQ PUSH3 0xFA JUMPI DUP3 DUP4 REVERT JUMPDEST PUSH1 0x20 SWAP4 SWAP1 SWAP4 ADD MLOAD SWAP3 SWAP5 SWAP3 SWAP4 POP POP POP JUMP JUMPDEST PUSH2 0x19B5 DUP1 PUSH3 0x11A PUSH1 0x0 CODECOPY PUSH1 0x0 RETURN INVALID PUSH1 0x80 PUSH1 0x40 MSTORE CALLVALUE DUP1 ISZERO PUSH2 0x10 JUMPI PUSH1 0x0 DUP1 REVERT JUMPDEST POP PUSH1 0x4 CALLDATASIZE LT PUSH2 0x18D JUMPI PUSH1 0x0 CALLDATALOAD PUSH1 0xE0 SHR DUP1 PUSH4 0x6EA69D62 GT PUSH2 0xE3 JUMPI DUP1 PUSH4 0x93F1A40B GT PUSH2 0x8C JUMPI DUP1 PUSH4 0xDCCD4D69 GT PUSH2 0x66 JUMPI DUP1 PUSH4 0xDCCD4D69 EQ PUSH2 0x2F1 JUMPI DUP1 PUSH4 0xE2BBB158 EQ PUSH2 0x2F9 JUMPI DUP1 PUSH4 0xF2FDE38B EQ PUSH2 0x30C JUMPI PUSH2 0x18D JUMP JUMPDEST DUP1 PUSH4 0x93F1A40B EQ PUSH2 0x2B3 JUMPI DUP1 PUSH4 0x9BE885E5 EQ PUSH2 0x2D6 JUMPI DUP1 PUSH4 0xD49BC65E EQ PUSH2 0x2DE JUMPI PUSH2 0x18D JUMP JUMPDEST DUP1 PUSH4 0x8AA28550 GT PUSH2 0xBD JUMPI DUP1 PUSH4 0x8AA28550 EQ PUSH2 0x290 JUMPI DUP1 PUSH4 0x8DA5CB5B EQ PUSH2 0x298 JUMPI DUP1 PUSH4 0x8DBB1E3A EQ PUSH2 0x2A0 JUMPI PUSH2 0x18D JUMP JUMPDEST DUP1 PUSH4 0x6EA69D62 EQ PUSH2 0x260 JUMPI DUP1 PUSH4 0x715018A6 EQ PUSH2 0x275 JUMPI DUP1 PUSH4 0x78D50450 EQ PUSH2 0x27D JUMPI PUSH2 0x18D JUMP JUMPDEST DUP1 PUSH4 0x51508F0A GT PUSH2 0x145 JUMPI DUP1 PUSH4 0x5540421B GT PUSH2 0x11F JUMPI DUP1 PUSH4 0x5540421B EQ PUSH2 0x23D JUMPI DUP1 PUSH4 0x630B5BA1 EQ PUSH2 0x245 JUMPI DUP1 PUSH4 0x6E983466 EQ PUSH2 0x24D JUMPI PUSH2 0x18D JUMP JUMPDEST DUP1 PUSH4 0x51508F0A EQ PUSH2 0x204 JUMPI DUP1 PUSH4 0x51EB05A6 EQ PUSH2 0x217 JUMPI DUP1 PUSH4 0x5312EA8E EQ PUSH2 0x22A JUMPI PUSH2 0x18D JUMP JUMPDEST DUP1 PUSH4 0x1CE529CB GT PUSH2 0x176 JUMPI DUP1 PUSH4 0x1CE529CB EQ PUSH2 0x1D4 JUMPI DUP1 PUSH4 0x441A3E70 EQ PUSH2 0x1E9 JUMPI DUP1 PUSH4 0x474FA630 EQ PUSH2 0x1FC JUMPI PUSH2 0x18D JUMP JUMPDEST DUP1 PUSH4 0x81E3EDA EQ PUSH2 0x192 JUMPI DUP1 PUSH4 0x1526FE27 EQ PUSH2 0x1B0 JUMPI JUMPDEST PUSH1 0x0 DUP1 REVERT JUMPDEST PUSH2 0x19A PUSH2 0x31F JUMP JUMPDEST PUSH1 0x40 MLOAD PUSH2 0x1A7 SWAP2 SWAP1 PUSH2 0x186D JUMP JUMPDEST PUSH1 0x40 MLOAD DUP1 SWAP2 SUB SWAP1 RETURN JUMPDEST PUSH2 0x1C3 PUSH2 0x1BE CALLDATASIZE PUSH1 0x4 PUSH2 0x14A7 JUMP JUMPDEST PUSH2 0x325 JUMP JUMPDEST PUSH1 0x40 MLOAD PUSH2 0x1A7 SWAP6 SWAP5 SWAP4 SWAP3 SWAP2 SWAP1 PUSH2 0x1589 JUMP JUMPDEST PUSH2 0x1E7 PUSH2 0x1E2 CALLDATASIZE PUSH1 0x4 PUSH2 0x14A7 JUMP JUMPDEST PUSH2 0x370 JUMP JUMPDEST STOP JUMPDEST PUSH2 0x1E7 PUSH2 0x1F7 CALLDATASIZE PUSH1 0x4 PUSH2 0x14FB JUMP JUMPDEST PUSH2 0x3A6 JUMP JUMPDEST PUSH2 0x19A PUSH2 0x62D JUMP JUMPDEST PUSH2 0x1E7 PUSH2 0x212 CALLDATASIZE PUSH1 0x4 PUSH2 0x1437 JUMP JUMPDEST PUSH2 0x633 JUMP JUMPDEST PUSH2 0x1E7 PUSH2 0x225 CALLDATASIZE PUSH1 0x4 PUSH2 0x14A7 JUMP JUMPDEST PUSH2 0x67D JUMP JUMPDEST PUSH2 0x1E7 PUSH2 0x238 CALLDATASIZE PUSH1 0x4 PUSH2 0x14A7 JUMP JUMPDEST PUSH2 0x7E9 JUMP JUMPDEST PUSH2 0x19A PUSH2 0x8EF JUMP JUMPDEST PUSH2 0x1E7 PUSH2 0x8F5 JUMP JUMPDEST PUSH2 0x1E7 PUSH2 0x25B CALLDATASIZE PUSH1 0x4 PUSH2 0x146F JUMP JUMPDEST PUSH2 0x920 JUMP JUMPDEST PUSH2 0x268 PUSH2 0xA76 JUMP JUMPDEST PUSH1 0x40 MLOAD PUSH2 0x1A7 SWAP2 SWAP1 PUSH2 0x1538 JUMP JUMPDEST PUSH2 0x1E7 PUSH2 0xA85 JUMP JUMPDEST PUSH2 0x19A PUSH2 0x28B CALLDATASIZE PUSH1 0x4 PUSH2 0x14D7 JUMP JUMPDEST PUSH2 0xA99 JUMP JUMPDEST PUSH2 0x19A PUSH2 0xC60 JUMP JUMPDEST PUSH2 0x268 PUSH2 0xC65 JUMP JUMPDEST PUSH2 0x19A PUSH2 0x2AE CALLDATASIZE PUSH1 0x4 PUSH2 0x14FB JUMP JUMPDEST PUSH2 0xC74 JUMP JUMPDEST PUSH2 0x2C6 PUSH2 0x2C1 CALLDATASIZE PUSH1 0x4 PUSH2 0x14D7 JUMP JUMPDEST PUSH2 0xC92 JUMP JUMPDEST PUSH1 0x40 MLOAD PUSH2 0x1A7 SWAP5 SWAP4 SWAP3 SWAP2 SWAP1 PUSH2 0x1876 JUMP JUMPDEST PUSH2 0x19A PUSH2 0xCC4 JUMP JUMPDEST PUSH2 0x1E7 PUSH2 0x2EC CALLDATASIZE PUSH1 0x4 PUSH2 0x14FB JUMP JUMPDEST PUSH2 0xCCA JUMP JUMPDEST PUSH2 0x268 PUSH2 0xD49 JUMP JUMPDEST PUSH2 0x1E7 PUSH2 0x307 CALLDATASIZE PUSH1 0x4 PUSH2 0x14FB JUMP JUMPDEST PUSH2 0xD58 JUMP JUMPDEST PUSH2 0x1E7 PUSH2 0x31A CALLDATASIZE PUSH1 0x4 PUSH2 0x1437 JUMP JUMPDEST PUSH2 0xF39 JUMP JUMPDEST PUSH1 0x3 SLOAD SWAP1 JUMP JUMPDEST PUSH1 0x3 DUP2 DUP2 SLOAD DUP2 LT PUSH2 0x335 JUMPI PUSH1 0x0 DUP1 REVERT JUMPDEST PUSH1 0x0 SWAP2 DUP3 MSTORE PUSH1 0x20 SWAP1 SWAP2 KECCAK256 PUSH1 0x5 SWAP1 SWAP2 MUL ADD DUP1 SLOAD PUSH1 0x1 DUP3 ADD SLOAD PUSH1 0x2 DUP4 ADD SLOAD PUSH1 0x3 DUP5 ADD SLOAD PUSH1 0x4 SWAP1 SWAP5 ADD SLOAD PUSH1 0x1 PUSH1 0x1 PUSH1 0xA0 SHL SUB SWAP1 SWAP4 AND SWAP5 POP SWAP1 SWAP3 SWAP1 SWAP2 DUP6 JUMP JUMPDEST PUSH2 0x378 PUSH2 0xF70 JUMP JUMPDEST PUSH1 0x0 DUP2 GT PUSH2 0x3A1 JUMPI PUSH1 0x40 MLOAD PUSH3 0x461BCD PUSH1 0xE5 SHL DUP2 MSTORE PUSH1 0x4 ADD PUSH2 0x398 SWAP1 PUSH2 0x17D9 JUMP JUMPDEST PUSH1 0x40 MLOAD DUP1 SWAP2 SUB SWAP1 REVERT JUMPDEST PUSH1 0x8 SSTORE JUMP JUMPDEST PUSH1 0x2 PUSH1 0x1 SLOAD EQ ISZERO PUSH2 0x3C9 JUMPI PUSH1 0x40 MLOAD PUSH3 0x461BCD PUSH1 0xE5 SHL DUP2 MSTORE PUSH1 0x4 ADD PUSH2 0x398 SWAP1 PUSH2 0x1836 JUMP JUMPDEST PUSH1 0x2 PUSH1 0x1 SSTORE PUSH1 0x7 SLOAD PUSH1 0x1 PUSH1 0x1 PUSH1 0xA0 SHL SUB AND PUSH2 0x3E3 JUMPI PUSH1 0x0 DUP1 REVERT JUMPDEST PUSH1 0x0 PUSH1 0x3 DUP4 DUP2 SLOAD DUP2 LT PUSH2 0x406 JUMPI PUSH4 0x4E487B71 PUSH1 0xE0 SHL PUSH1 0x0 MSTORE PUSH1 0x32 PUSH1 0x4 MSTORE PUSH1 0x24 PUSH1 0x0 REVERT JUMPDEST PUSH1 0x0 SWAP2 DUP3 MSTORE PUSH1 0x20 DUP1 DUP4 KECCAK256 DUP7 DUP5 MSTORE PUSH1 0x4 DUP3 MSTORE PUSH1 0x40 DUP1 DUP6 KECCAK256 CALLER DUP7 MSTORE SWAP1 SWAP3 MSTORE SWAP3 KECCAK256 DUP1 SLOAD PUSH1 0x5 SWAP1 SWAP3 MUL SWAP1 SWAP3 ADD SWAP3 POP DUP4 GT ISZERO PUSH2 0x44F JUMPI PUSH1 0x40 MLOAD PUSH3 0x461BCD PUSH1 0xE5 SHL DUP2 MSTORE PUSH1 0x4 ADD PUSH2 0x398 SWAP1 PUSH2 0x1745 JUMP JUMPDEST PUSH2 0x458 DUP5 PUSH2 0x67D JUMP JUMPDEST PUSH1 0x0 PUSH2 0x492 DUP3 PUSH1 0x1 ADD SLOAD PUSH2 0x48C PUSH5 0xE8D4A51000 PUSH2 0x486 DUP8 PUSH1 0x2 ADD SLOAD DUP8 PUSH1 0x0 ADD SLOAD PUSH2 0xFAF SWAP1 SWAP2 SWAP1 PUSH4 0xFFFFFFFF AND JUMP JUMPDEST SWAP1 PUSH2 0xFBB JUMP JUMPDEST SWAP1 PUSH2 0xFC7 JUMP JUMPDEST SWAP1 POP DUP4 ISZERO PUSH2 0x5C6 JUMPI PUSH1 0x0 DUP2 GT DUP1 PUSH2 0x4AD JUMPI POP PUSH1 0x0 DUP3 PUSH1 0x2 ADD SLOAD GT JUMPDEST ISZERO PUSH2 0x51D JUMPI PUSH1 0x0 PUSH2 0x4CB DUP4 PUSH1 0x2 ADD SLOAD DUP4 PUSH2 0xFD3 SWAP1 SWAP2 SWAP1 PUSH4 0xFFFFFFFF AND JUMP JUMPDEST SWAP1 POP PUSH2 0x4E6 DUP4 PUSH1 0x2 ADD SLOAD PUSH1 0x6 SLOAD PUSH2 0xFC7 SWAP1 SWAP2 SWAP1 PUSH4 0xFFFFFFFF AND JUMP JUMPDEST PUSH1 0x6 SSTORE PUSH1 0x0 PUSH1 0x2 DUP5 ADD SSTORE PUSH1 0x7 SLOAD PUSH2 0x507 SWAP1 PUSH1 0x1 PUSH1 0x1 PUSH1 0xA0 SHL SUB AND CALLER DUP4 PUSH2 0xFDF JUMP JUMPDEST PUSH1 0x4 DUP5 ADD SLOAD PUSH2 0x516 SWAP1 DUP3 PUSH2 0xFD3 JUMP JUMPDEST PUSH1 0x4 DUP6 ADD SSTORE POP JUMPDEST PUSH1 0x8 SLOAD PUSH1 0x3 DUP4 ADD SLOAD PUSH2 0x530 SWAP1 TIMESTAMP SWAP1 PUSH2 0xFC7 JUMP JUMPDEST LT ISZERO PUSH2 0x58E JUMPI PUSH1 0x0 PUSH2 0x54D PUSH2 0x546 DUP7 PUSH1 0x64 PUSH2 0xFBB JUMP JUMPDEST DUP7 SWAP1 PUSH2 0xFC7 JUMP JUMPDEST PUSH1 0x3 DUP6 ADD SLOAD SWAP1 SWAP2 POP PUSH2 0x55F SWAP1 DUP7 PUSH2 0xFC7 JUMP JUMPDEST PUSH1 0x3 DUP6 ADD SSTORE DUP3 SLOAD PUSH2 0x570 SWAP1 DUP7 PUSH2 0xFC7 JUMP JUMPDEST DUP4 SSTORE DUP4 SLOAD PUSH2 0x588 SWAP1 PUSH1 0x1 PUSH1 0x1 PUSH1 0xA0 SHL SUB AND CALLER DUP4 PUSH2 0x1184 JUMP JUMPDEST POP PUSH2 0x5C6 JUMP JUMPDEST PUSH1 0x3 DUP4 ADD SLOAD PUSH2 0x59D SWAP1 DUP6 PUSH2 0xFC7 JUMP JUMPDEST PUSH1 0x3 DUP5 ADD SSTORE DUP2 SLOAD PUSH2 0x5AE SWAP1 DUP6 PUSH2 0xFC7 JUMP JUMPDEST DUP3 SSTORE DUP3 SLOAD PUSH2 0x5C6 SWAP1 PUSH1 0x1 PUSH1 0x1 PUSH1 0xA0 SHL SUB AND CALLER DUP7 PUSH2 0x1184 JUMP JUMPDEST PUSH1 0x2 DUP4 ADD SLOAD DUP3 SLOAD PUSH2 0x5E1 SWAP2 PUSH5 0xE8D4A51000 SWAP2 PUSH2 0x486 SWAP2 PUSH2 0xFAF JUMP JUMPDEST PUSH1 0x1 DUP4 ADD SSTORE PUSH1 0x40 MLOAD DUP6 SWAP1 CALLER SWAP1 PUSH32 0xF279E6A1F5E320CCA91135676D9CB6E44CA8A08C0B88342BCDB1144F6511B568 SWAP1 PUSH2 0x61A SWAP1 DUP9 SWAP1 PUSH2 0x186D JUMP JUMPDEST PUSH1 0x40 MLOAD DUP1 SWAP2 SUB SWAP1 LOG3 POP POP PUSH1 0x1 DUP1 SSTORE POP POP POP JUMP JUMPDEST PUSH1 0x6 SLOAD DUP2 JUMP JUMPDEST PUSH2 0x63B PUSH2 0xF70 JUMP JUMPDEST PUSH1 0x1 PUSH1 0x1 PUSH1 0xA0 SHL SUB DUP2 AND PUSH2 0x64E JUMPI PUSH1 0x0 DUP1 REVERT JUMPDEST PUSH1 0x7 DUP1 SLOAD PUSH20 0xFFFFFFFFFFFFFFFFFFFFFFFFFFFFFFFFFFFFFFFF NOT AND PUSH1 0x1 PUSH1 0x1 PUSH1 0xA0 SHL SUB SWAP3 SWAP1 SWAP3 AND SWAP2 SWAP1 SWAP2 OR SWAP1 SSTORE JUMP JUMPDEST PUSH1 0x7 SLOAD PUSH1 0x1 PUSH1 0x1 PUSH1 0xA0 SHL SUB AND PUSH2 0x692 JUMPI PUSH1 0x0 DUP1 REVERT JUMPDEST PUSH1 0x0 PUSH1 0x3 DUP3 DUP2 SLOAD DUP2 LT PUSH2 0x6B5 JUMPI PUSH4 0x4E487B71 PUSH1 0xE0 SHL PUSH1 0x0 MSTORE PUSH1 0x32 PUSH1 0x4 MSTORE PUSH1 0x24 PUSH1 0x0 REVERT JUMPDEST SWAP1 PUSH1 0x0 MSTORE PUSH1 0x20 PUSH1 0x0 KECCAK256 SWAP1 PUSH1 0x5 MUL ADD SWAP1 POP DUP1 PUSH1 0x1 ADD SLOAD TIMESTAMP GT PUSH2 0x6D6 JUMPI POP PUSH2 0x7E6 JUMP JUMPDEST PUSH1 0x3 DUP2 ADD SLOAD DUP1 PUSH2 0x6ED JUMPI POP TIMESTAMP PUSH1 0x1 SWAP1 SWAP2 ADD SSTORE PUSH2 0x7E6 JUMP JUMPDEST PUSH1 0x0 PUSH2 0x6FD DUP4 PUSH1 0x1 ADD SLOAD TIMESTAMP PUSH2 0xC74 JUMP JUMPDEST PUSH1 0x2 SLOAD PUSH1 0x7 SLOAD PUSH1 0x40 MLOAD PUSH4 0x70A08231 PUSH1 0xE0 SHL DUP2 MSTORE SWAP3 SWAP4 POP PUSH1 0x0 SWAP3 PUSH1 0x1 PUSH1 0x1 PUSH1 0xA0 SHL SUB SWAP3 DUP4 AND SWAP3 PUSH4 0x70A08231 SWAP3 PUSH2 0x737 SWAP3 SWAP2 AND SWAP1 PUSH1 0x4 ADD PUSH2 0x1538 JUMP JUMPDEST PUSH1 0x20 PUSH1 0x40 MLOAD DUP1 DUP4 SUB DUP2 DUP7 DUP1 EXTCODESIZE ISZERO DUP1 ISZERO PUSH2 0x74F JUMPI PUSH1 0x0 DUP1 REVERT JUMPDEST POP GAS STATICCALL ISZERO DUP1 ISZERO PUSH2 0x763 JUMPI RETURNDATASIZE PUSH1 0x0 DUP1 RETURNDATACOPY RETURNDATASIZE PUSH1 0x0 REVERT JUMPDEST POP POP POP POP PUSH1 0x40 MLOAD RETURNDATASIZE PUSH1 0x1F NOT PUSH1 0x1F DUP3 ADD AND DUP3 ADD DUP1 PUSH1 0x40 MSTORE POP DUP2 ADD SWAP1 PUSH2 0x787 SWAP2 SWAP1 PUSH2 0x14BF JUMP JUMPDEST SWAP1 POP PUSH1 0x0 PUSH2 0x7A0 PUSH2 0xE10 PUSH2 0x486 PUSH1 0x18 DUP2 DUP7 PUSH2 0x16D PUSH2 0xFBB JUMP JUMPDEST SWAP1 POP PUSH1 0x0 PUSH2 0x7AE DUP5 DUP4 PUSH2 0xFAF JUMP JUMPDEST SWAP1 POP PUSH2 0x7D1 PUSH2 0x7C6 DUP7 PUSH2 0x486 DUP5 PUSH5 0xE8D4A51000 PUSH2 0xFAF JUMP JUMPDEST PUSH1 0x2 DUP9 ADD SLOAD SWAP1 PUSH2 0xFD3 JUMP JUMPDEST PUSH1 0x2 DUP8 ADD SSTORE POP POP TIMESTAMP PUSH1 0x1 SWAP1 SWAP5 ADD SWAP4 SWAP1 SWAP4 SSTORE POP POP POP JUMPDEST POP JUMP JUMPDEST PUSH1 0x2 PUSH1 0x1 SLOAD EQ ISZERO PUSH2 0x80C JUMPI PUSH1 0x40 MLOAD PUSH3 0x461BCD PUSH1 0xE5 SHL DUP2 MSTORE PUSH1 0x4 ADD PUSH2 0x398 SWAP1 PUSH2 0x1836 JUMP JUMPDEST PUSH1 0x2 PUSH1 0x1 DUP2 SWAP1 SSTORE POP PUSH1 0x0 PUSH1 0x3 DUP3 DUP2 SLOAD DUP2 LT PUSH2 0x837 JUMPI PUSH4 0x4E487B71 PUSH1 0xE0 SHL PUSH1 0x0 MSTORE PUSH1 0x32 PUSH1 0x4 MSTORE PUSH1 0x24 PUSH1 0x0 REVERT JUMPDEST PUSH1 0x0 SWAP2 DUP3 MSTORE PUSH1 0x20 DUP1 DUP4 KECCAK256 DUP6 DUP5 MSTORE PUSH1 0x4 DUP3 MSTORE PUSH1 0x40 DUP1 DUP6 KECCAK256 CALLER DUP1 DUP8 MSTORE SWAP4 MSTORE DUP5 KECCAK256 DUP1 SLOAD DUP6 DUP3 SSTORE PUSH1 0x1 DUP3 ADD DUP7 SWAP1 SSTORE PUSH1 0x2 DUP3 ADD DUP7 SWAP1 SSTORE PUSH1 0x3 DUP3 ADD SWAP6 SWAP1 SWAP6 SSTORE PUSH1 0x5 SWAP1 SWAP4 MUL ADD DUP1 SLOAD SWAP1 SWAP5 POP SWAP2 SWAP3 SWAP2 PUSH2 0x895 SWAP2 PUSH1 0x1 PUSH1 0x1 PUSH1 0xA0 SHL SUB SWAP2 SWAP1 SWAP2 AND SWAP1 DUP4 PUSH2 0x1184 JUMP JUMPDEST PUSH1 0x3 DUP4 ADD SLOAD PUSH2 0x8A4 SWAP1 DUP3 PUSH2 0xFC7 JUMP JUMPDEST PUSH1 0x3 DUP5 ADD SSTORE PUSH1 0x40 MLOAD DUP5 SWAP1 CALLER SWAP1 PUSH32 0xBB757047C2B5F3974FE26B7C10F732E7BCE710B0952A71082702781E62AE0595 SWAP1 PUSH2 0x8DD SWAP1 DUP6 SWAP1 PUSH2 0x186D JUMP JUMPDEST PUSH1 0x40 MLOAD DUP1 SWAP2 SUB SWAP1 LOG3 POP POP PUSH1 0x1 DUP1 SSTORE POP POP JUMP JUMPDEST PUSH1 0x5 SLOAD DUP2 JUMP JUMPDEST PUSH1 0x3 SLOAD PUSH1 0x0 JUMPDEST DUP2 DUP2 LT ISZERO PUSH2 0x91C JUMPI PUSH2 0x90C DUP2 PUSH2 0x67D JUMP JUMPDEST PUSH2 0x915 DUP2 PUSH2 0x192B JUMP JUMPDEST SWAP1 POP PUSH2 0x8FB JUMP JUMPDEST POP POP JUMP JUMPDEST PUSH2 0x928 PUSH2 0xF70 JUMP JUMPDEST DUP1 ISZERO PUSH2 0x936 JUMPI PUSH2 0x936 PUSH2 0x8F5 JUMP JUMPDEST PUSH1 0x0 PUSH1 0x5 SLOAD TIMESTAMP GT PUSH2 0x949 JUMPI PUSH1 0x5 SLOAD PUSH2 0x94B JUMP JUMPDEST TIMESTAMP JUMPDEST PUSH1 0x40 DUP1 MLOAD PUSH1 0xA0 DUP2 ADD DUP3 MSTORE PUSH1 0x1 PUSH1 0x1 PUSH1 0xA0 SHL SUB SWAP6 DUP7 AND DUP2 MSTORE PUSH1 0x20 DUP2 ADD SWAP3 DUP4 MSTORE PUSH1 0x0 SWAP2 DUP2 ADD DUP3 DUP2 MSTORE PUSH1 0x60 DUP3 ADD DUP4 DUP2 MSTORE PUSH1 0x80 DUP4 ADD DUP5 DUP2 MSTORE PUSH1 0x3 DUP1 SLOAD PUSH1 0x1 DUP2 ADD DUP3 SSTORE SWAP6 MSTORE SWAP3 MLOAD PUSH32 0xC2575A0E9E593C00F959F8C92F12DB2869C3395A3B0502D05E2516446F71F85B PUSH1 0x5 SWAP1 SWAP6 MUL SWAP5 DUP6 ADD DUP1 SLOAD PUSH20 0xFFFFFFFFFFFFFFFFFFFFFFFFFFFFFFFFFFFFFFFF NOT AND SWAP2 SWAP1 SWAP10 AND OR SWAP1 SWAP8 SSTORE SWAP3 MLOAD PUSH32 0xC2575A0E9E593C00F959F8C92F12DB2869C3395A3B0502D05E2516446F71F85C DUP4 ADD SSTORE SWAP2 MLOAD PUSH32 0xC2575A0E9E593C00F959F8C92F12DB2869C3395A3B0502D05E2516446F71F85D DUP3 ADD SSTORE SWAP4 MLOAD PUSH32 0xC2575A0E9E593C00F959F8C92F12DB2869C3395A3B0502D05E2516446F71F85E DUP6 ADD SSTORE MLOAD PUSH32 0xC2575A0E9E593C00F959F8C92F12DB2869C3395A3B0502D05E2516446F71F85F SWAP1 SWAP4 ADD SWAP3 SWAP1 SWAP3 SSTORE POP POP JUMP JUMPDEST PUSH1 0x7 SLOAD PUSH1 0x1 PUSH1 0x1 PUSH1 0xA0 SHL SUB AND DUP2 JUMP JUMPDEST PUSH2 0xA8D PUSH2 0xF70 JUMP JUMPDEST PUSH2 0xA97 PUSH1 0x0 PUSH2 0x1207 JUMP JUMPDEST JUMP JUMPDEST PUSH1 0x7 SLOAD PUSH1 0x0 SWAP1 PUSH1 0x1 PUSH1 0x1 PUSH1 0xA0 SHL SUB AND PUSH2 0xAB1 JUMPI PUSH1 0x0 DUP1 REVERT JUMPDEST PUSH1 0x0 PUSH1 0x3 DUP5 DUP2 SLOAD DUP2 LT PUSH2 0xAD4 JUMPI PUSH4 0x4E487B71 PUSH1 0xE0 SHL PUSH1 0x0 MSTORE PUSH1 0x32 PUSH1 0x4 MSTORE PUSH1 0x24 PUSH1 0x0 REVERT JUMPDEST PUSH1 0x0 SWAP2 DUP3 MSTORE PUSH1 0x20 DUP1 DUP4 KECCAK256 DUP8 DUP5 MSTORE PUSH1 0x4 DUP3 MSTORE PUSH1 0x40 DUP1 DUP6 KECCAK256 PUSH1 0x1 PUSH1 0x1 PUSH1 0xA0 SHL SUB DUP10 AND DUP7 MSTORE SWAP1 SWAP3 MSTORE SWAP3 KECCAK256 PUSH1 0x2 PUSH1 0x5 SWAP1 SWAP3 MUL SWAP1 SWAP3 ADD SWAP1 DUP2 ADD SLOAD PUSH1 0x3 DUP3 ADD SLOAD PUSH1 0x1 DUP4 ADD SLOAD SWAP3 SWAP5 POP SWAP1 SWAP2 TIMESTAMP GT DUP1 ISZERO PUSH2 0xB25 JUMPI POP DUP1 ISZERO ISZERO JUMPDEST ISZERO PUSH2 0xC11 JUMPI PUSH1 0x0 PUSH2 0xB3A DUP6 PUSH1 0x1 ADD SLOAD TIMESTAMP PUSH2 0xC74 JUMP JUMPDEST PUSH1 0x2 SLOAD PUSH1 0x7 SLOAD PUSH1 0x40 MLOAD PUSH4 0x70A08231 PUSH1 0xE0 SHL DUP2 MSTORE SWAP3 SWAP4 POP PUSH1 0x0 SWAP3 PUSH1 0x1 PUSH1 0x1 PUSH1 0xA0 SHL SUB SWAP3 DUP4 AND SWAP3 PUSH4 0x70A08231 SWAP3 PUSH2 0xB74 SWAP3 SWAP2 AND SWAP1 PUSH1 0x4 ADD PUSH2 0x1538 JUMP JUMPDEST PUSH1 0x20 PUSH1 0x40 MLOAD DUP1 DUP4 SUB DUP2 DUP7 DUP1 EXTCODESIZE ISZERO DUP1 ISZERO PUSH2 0xB8C JUMPI PUSH1 0x0 DUP1 REVERT JUMPDEST POP GAS STATICCALL ISZERO DUP1 ISZERO PUSH2 0xBA0 JUMPI RETURNDATASIZE PUSH1 0x0 DUP1 RETURNDATACOPY RETURNDATASIZE PUSH1 0x0 REVERT JUMPDEST POP POP POP POP PUSH1 0x40 MLOAD RETURNDATASIZE PUSH1 0x1F NOT PUSH1 0x1F DUP3 ADD AND DUP3 ADD DUP1 PUSH1 0x40 MSTORE POP DUP2 ADD SWAP1 PUSH2 0xBC4 SWAP2 SWAP1 PUSH2 0x14BF JUMP JUMPDEST SWAP1 POP PUSH1 0x0 PUSH2 0xBDD PUSH2 0xE10 PUSH2 0x486 PUSH1 0x18 DUP2 DUP7 PUSH2 0x16D PUSH2 0xFBB JUMP JUMPDEST SWAP1 POP PUSH1 0x0 PUSH2 0xBEB DUP5 DUP4 PUSH2 0xFAF JUMP JUMPDEST SWAP1 POP PUSH2 0xC0A PUSH2 0xC03 DUP7 PUSH2 0x486 DUP5 PUSH5 0xE8D4A51000 PUSH2 0xFAF JUMP JUMPDEST DUP8 SWAP1 PUSH2 0xFD3 JUMP JUMPDEST SWAP6 POP POP POP POP POP JUMPDEST PUSH1 0x0 PUSH2 0xC3B DUP5 PUSH1 0x1 ADD SLOAD PUSH2 0x48C PUSH5 0xE8D4A51000 PUSH2 0x486 DUP8 DUP10 PUSH1 0x0 ADD SLOAD PUSH2 0xFAF SWAP1 SWAP2 SWAP1 PUSH4 0xFFFFFFFF AND JUMP JUMPDEST SWAP1 POP PUSH2 0xC54 DUP5 PUSH1 0x2 ADD SLOAD DUP3 PUSH2 0xFD3 SWAP1 SWAP2 SWAP1 PUSH4 0xFFFFFFFF AND JUMP JUMPDEST SWAP9 SWAP8 POP POP POP POP POP POP POP POP JUMP JUMPDEST PUSH1 0x1 DUP2 JUMP JUMPDEST PUSH1 0x0 SLOAD PUSH1 0x1 PUSH1 0x1 PUSH1 0xA0 SHL SUB AND SWAP1 JUMP JUMPDEST PUSH1 0x0 PUSH2 0xC8B PUSH1 0x1 PUSH2 0xC85 DUP5 DUP7 PUSH2 0xFC7 JUMP JUMPDEST SWAP1 PUSH2 0xFAF JUMP JUMPDEST SWAP4 SWAP3 POP POP POP JUMP JUMPDEST PUSH1 0x4 PUSH1 0x20 SWAP1 DUP2 MSTORE PUSH1 0x0 SWAP3 DUP4 MSTORE PUSH1 0x40 DUP1 DUP5 KECCAK256 SWAP1 SWAP2 MSTORE SWAP1 DUP3 MSTORE SWAP1 KECCAK256 DUP1 SLOAD PUSH1 0x1 DUP3 ADD SLOAD PUSH1 0x2 DUP4 ADD SLOAD PUSH1 0x3 SWAP1 SWAP4 ADD SLOAD SWAP2 SWAP3 SWAP1 SWAP2 DUP5 JUMP JUMPDEST PUSH1 0x8 SLOAD DUP2 JUMP JUMPDEST PUSH2 0xCD2 PUSH2 0xF70 JUMP JUMPDEST PUSH1 0x0 DUP2 GT PUSH2 0xCF2 JUMPI PUSH1 0x40 MLOAD PUSH3 0x461BCD PUSH1 0xE5 SHL DUP2 MSTORE PUSH1 0x4 ADD PUSH2 0x398 SWAP1 PUSH2 0x16D9 JUMP JUMPDEST PUSH1 0x0 PUSH1 0x3 DUP4 DUP2 SLOAD DUP2 LT PUSH2 0xD15 JUMPI PUSH4 0x4E487B71 PUSH1 0xE0 SHL PUSH1 0x0 MSTORE PUSH1 0x32 PUSH1 0x4 MSTORE PUSH1 0x24 PUSH1 0x0 REVERT JUMPDEST PUSH1 0x0 SWAP2 DUP3 MSTORE PUSH1 0x20 SWAP1 SWAP2 KECCAK256 PUSH1 0x7 SLOAD PUSH1 0x5 SWAP1 SWAP3 MUL ADD DUP1 SLOAD SWAP1 SWAP3 POP PUSH2 0xD44 SWAP2 PUSH1 0x1 PUSH1 0x1 PUSH1 0xA0 SHL SUB SWAP2 DUP3 AND SWAP2 AND DUP5 PUSH2 0x1184 JUMP JUMPDEST POP POP POP JUMP JUMPDEST PUSH1 0x2 SLOAD PUSH1 0x1 PUSH1 0x1 PUSH1 0xA0 SHL SUB AND DUP2 JUMP JUMPDEST PUSH1 0x2 PUSH1 0x1 SLOAD EQ ISZERO PUSH2 0xD7B JUMPI PUSH1 0x40 MLOAD PUSH3 0x461BCD PUSH1 0xE5 SHL DUP2 MSTORE PUSH1 0x4 ADD PUSH2 0x398 SWAP1 PUSH2 0x1836 JUMP JUMPDEST PUSH1 0x2 PUSH1 0x1 SSTORE PUSH1 0x7 SLOAD PUSH1 0x1 PUSH1 0x1 PUSH1 0xA0 SHL SUB AND PUSH2 0xD95 JUMPI PUSH1 0x0 DUP1 REVERT JUMPDEST PUSH1 0x0 PUSH1 0x3 DUP4 DUP2 SLOAD DUP2 LT PUSH2 0xDB8 JUMPI PUSH4 0x4E487B71 PUSH1 0xE0 SHL PUSH1 0x0 MSTORE PUSH1 0x32 PUSH1 0x4 MSTORE PUSH1 0x24 PUSH1 0x0 REVERT JUMPDEST PUSH1 0x0 SWAP2 DUP3 MSTORE PUSH1 0x20 DUP1 DUP4 KECCAK256 DUP7 DUP5 MSTORE PUSH1 0x4 DUP3 MSTORE PUSH1 0x40 DUP1 DUP6 KECCAK256 CALLER DUP7 MSTORE SWAP1 SWAP3 MSTORE SWAP3 KECCAK256 PUSH1 0x5 SWAP1 SWAP2 MUL SWAP1 SWAP2 ADD SWAP2 POP PUSH2 0xDE9 DUP5 PUSH2 0x67D JUMP JUMPDEST PUSH1 0x0 PUSH2 0xE17 DUP3 PUSH1 0x1 ADD SLOAD PUSH2 0x48C PUSH5 0xE8D4A51000 PUSH2 0x486 DUP8 PUSH1 0x2 ADD SLOAD DUP8 PUSH1 0x0 ADD SLOAD PUSH2 0xFAF SWAP1 SWAP2 SWAP1 PUSH4 0xFFFFFFFF AND JUMP JUMPDEST SWAP1 POP PUSH1 0x0 DUP2 GT DUP1 PUSH2 0xE2C JUMPI POP PUSH1 0x0 DUP3 PUSH1 0x2 ADD SLOAD GT JUMPDEST ISZERO PUSH2 0xE9C JUMPI PUSH1 0x0 PUSH2 0xE4A DUP4 PUSH1 0x2 ADD SLOAD DUP4 PUSH2 0xFD3 SWAP1 SWAP2 SWAP1 PUSH4 0xFFFFFFFF AND JUMP JUMPDEST SWAP1 POP PUSH2 0xE65 DUP4 PUSH1 0x2 ADD SLOAD PUSH1 0x6 SLOAD PUSH2 0xFC7 SWAP1 SWAP2 SWAP1 PUSH4 0xFFFFFFFF AND JUMP JUMPDEST PUSH1 0x6 SSTORE PUSH1 0x0 PUSH1 0x2 DUP5 ADD SSTORE PUSH1 0x7 SLOAD PUSH2 0xE86 SWAP1 PUSH1 0x1 PUSH1 0x1 PUSH1 0xA0 SHL SUB AND CALLER DUP4 PUSH2 0xFDF JUMP JUMPDEST PUSH1 0x4 DUP5 ADD SLOAD PUSH2 0xE95 SWAP1 DUP3 PUSH2 0xFD3 JUMP JUMPDEST PUSH1 0x4 DUP6 ADD SSTORE POP JUMPDEST DUP4 ISZERO PUSH2 0xEE5 JUMPI DUP3 SLOAD PUSH2 0xEB9 SWAP1 PUSH1 0x1 PUSH1 0x1 PUSH1 0xA0 SHL SUB AND CALLER ADDRESS DUP8 PUSH2 0x1264 JUMP JUMPDEST DUP2 SLOAD PUSH2 0xEC5 SWAP1 DUP6 PUSH2 0xFD3 JUMP JUMPDEST DUP3 SSTORE PUSH1 0x3 DUP4 ADD SLOAD PUSH2 0xED6 SWAP1 DUP6 PUSH2 0xFD3 JUMP JUMPDEST PUSH1 0x3 DUP1 DUP6 ADD SWAP2 SWAP1 SWAP2 SSTORE TIMESTAMP SWAP1 DUP4 ADD SSTORE JUMPDEST PUSH1 0x2 DUP4 ADD SLOAD DUP3 SLOAD PUSH2 0xF00 SWAP2 PUSH5 0xE8D4A51000 SWAP2 PUSH2 0x486 SWAP2 PUSH2 0xFAF JUMP JUMPDEST PUSH1 0x1 DUP4 ADD SSTORE PUSH1 0x40 MLOAD DUP6 SWAP1 CALLER SWAP1 PUSH32 0x90890809C654F11D6E72A28FA60149770A0D11EC6C92319D6CEB2BB0A4EA1A15 SWAP1 PUSH2 0x61A SWAP1 DUP9 SWAP1 PUSH2 0x186D JUMP JUMPDEST PUSH2 0xF41 PUSH2 0xF70 JUMP JUMPDEST PUSH1 0x1 PUSH1 0x1 PUSH1 0xA0 SHL SUB DUP2 AND PUSH2 0xF67 JUMPI PUSH1 0x40 MLOAD PUSH3 0x461BCD PUSH1 0xE5 SHL DUP2 MSTORE PUSH1 0x4 ADD PUSH2 0x398 SWAP1 PUSH2 0x15EA JUMP JUMPDEST PUSH2 0x7E6 DUP2 PUSH2 0x1207 JUMP JUMPDEST PUSH2 0xF78 PUSH2 0x1285 JUMP JUMPDEST PUSH1 0x1 PUSH1 0x1 PUSH1 0xA0 SHL SUB AND PUSH2 0xF89 PUSH2 0xC65 JUMP JUMPDEST PUSH1 0x1 PUSH1 0x1 PUSH1 0xA0 SHL SUB AND EQ PUSH2 0xA97 JUMPI PUSH1 0x40 MLOAD PUSH3 0x461BCD PUSH1 0xE5 SHL DUP2 MSTORE PUSH1 0x4 ADD PUSH2 0x398 SWAP1 PUSH2 0x16A4 JUMP JUMPDEST PUSH1 0x0 PUSH2 0xC8B DUP3 DUP5 PUSH2 0x18C9 JUMP JUMPDEST PUSH1 0x0 PUSH2 0xC8B DUP3 DUP5 PUSH2 0x18A9 JUMP JUMPDEST PUSH1 0x0 PUSH2 0xC8B DUP3 DUP5 PUSH2 0x18E8 JUMP JUMPDEST PUSH1 0x0 PUSH2 0xC8B DUP3 DUP5 PUSH2 0x1891 JUMP JUMPDEST PUSH1 0x2 SLOAD PUSH1 0x40 MLOAD PUSH4 0x70A08231 PUSH1 0xE0 SHL DUP2 MSTORE PUSH1 0x0 SWAP2 PUSH1 0x1 PUSH1 0x1 PUSH1 0xA0 SHL SUB AND SWAP1 PUSH4 0x70A08231 SWAP1 PUSH2 0x1010 SWAP1 DUP8 SWAP1 PUSH1 0x4 ADD PUSH2 0x1538 JUMP JUMPDEST PUSH1 0x20 PUSH1 0x40 MLOAD DUP1 DUP4 SUB DUP2 DUP7 DUP1 EXTCODESIZE ISZERO DUP1 ISZERO PUSH2 0x1028 JUMPI PUSH1 0x0 DUP1 REVERT JUMPDEST POP GAS STATICCALL ISZERO DUP1 ISZERO PUSH2 0x103C JUMPI RETURNDATASIZE PUSH1 0x0 DUP1 RETURNDATACOPY RETURNDATASIZE PUSH1 0x0 REVERT JUMPDEST POP POP POP POP PUSH1 0x40 MLOAD RETURNDATASIZE PUSH1 0x1F NOT PUSH1 0x1F DUP3 ADD AND DUP3 ADD DUP1 PUSH1 0x40 MSTORE POP DUP2 ADD SWAP1 PUSH2 0x1060 SWAP2 SWAP1 PUSH2 0x14BF JUMP JUMPDEST SWAP1 POP DUP1 DUP3 GT ISZERO PUSH2 0x10F6 JUMPI PUSH1 0x2 SLOAD PUSH1 0x40 MLOAD PUSH4 0x23B872DD PUSH1 0xE0 SHL DUP2 MSTORE PUSH1 0x1 PUSH1 0x1 PUSH1 0xA0 SHL SUB SWAP1 SWAP2 AND SWAP1 PUSH4 0x23B872DD SWAP1 PUSH2 0x109E SWAP1 DUP8 SWAP1 DUP8 SWAP1 DUP7 SWAP1 PUSH1 0x4 ADD PUSH2 0x154C JUMP JUMPDEST PUSH1 0x20 PUSH1 0x40 MLOAD DUP1 DUP4 SUB DUP2 PUSH1 0x0 DUP8 DUP1 EXTCODESIZE ISZERO DUP1 ISZERO PUSH2 0x10B8 JUMPI PUSH1 0x0 DUP1 REVERT JUMPDEST POP GAS CALL ISZERO DUP1 ISZERO PUSH2 0x10CC JUMPI RETURNDATASIZE PUSH1 0x0 DUP1 RETURNDATACOPY RETURNDATASIZE PUSH1 0x0 REVERT JUMPDEST POP POP POP POP PUSH1 0x40 MLOAD RETURNDATASIZE PUSH1 0x1F NOT PUSH1 0x1F DUP3 ADD AND DUP3 ADD DUP1 PUSH1 0x40 MSTORE POP DUP2 ADD SWAP1 PUSH2 0x10F0 SWAP2 SWAP1 PUSH2 0x1453 JUMP JUMPDEST POP PUSH2 0x117E JUMP JUMPDEST PUSH1 0x2 SLOAD PUSH1 0x40 MLOAD PUSH4 0x23B872DD PUSH1 0xE0 SHL DUP2 MSTORE PUSH1 0x1 PUSH1 0x1 PUSH1 0xA0 SHL SUB SWAP1 SWAP2 AND SWAP1 PUSH4 0x23B872DD SWAP1 PUSH2 0x112A SWAP1 DUP8 SWAP1 DUP8 SWAP1 DUP8 SWAP1 PUSH1 0x4 ADD PUSH2 0x154C JUMP JUMPDEST PUSH1 0x20 PUSH1 0x40 MLOAD DUP1 DUP4 SUB DUP2 PUSH1 0x0 DUP8 DUP1 EXTCODESIZE ISZERO DUP1 ISZERO PUSH2 0x1144 JUMPI PUSH1 0x0 DUP1 REVERT JUMPDEST POP GAS CALL ISZERO DUP1 ISZERO PUSH2 0x1158 JUMPI RETURNDATASIZE PUSH1 0x0 DUP1 RETURNDATACOPY RETURNDATASIZE PUSH1 0x0 REVERT JUMPDEST POP POP POP POP PUSH1 0x40 MLOAD RETURNDATASIZE PUSH1 0x1F NOT PUSH1 0x1F DUP3 ADD AND DUP3 ADD DUP1 PUSH1 0x40 MSTORE POP DUP2 ADD SWAP1 PUSH2 0x117C SWAP2 SWAP1 PUSH2 0x1453 JUMP JUMPDEST POP JUMPDEST POP POP POP POP JUMP JUMPDEST PUSH2 0xD44 DUP4 PUSH4 0xA9059CBB PUSH1 0xE0 SHL DUP5 DUP5 PUSH1 0x40 MLOAD PUSH1 0x24 ADD PUSH2 0x11A3 SWAP3 SWAP2 SWAP1 PUSH2 0x1570 JUMP JUMPDEST PUSH1 0x40 DUP1 MLOAD PUSH1 0x1F NOT DUP2 DUP5 SUB ADD DUP2 MSTORE SWAP2 SWAP1 MSTORE PUSH1 0x20 DUP2 ADD DUP1 MLOAD PUSH28 0xFFFFFFFFFFFFFFFFFFFFFFFFFFFFFFFFFFFFFFFFFFFFFFFFFFFFFFFF AND PUSH32 0xFFFFFFFF00000000000000000000000000000000000000000000000000000000 SWAP1 SWAP4 AND SWAP3 SWAP1 SWAP3 OR SWAP1 SWAP2 MSTORE PUSH2 0x1289 JUMP JUMPDEST PUSH1 0x0 DUP1 SLOAD PUSH1 0x1 PUSH1 0x1 PUSH1 0xA0 SHL SUB DUP4 DUP2 AND PUSH20 0xFFFFFFFFFFFFFFFFFFFFFFFFFFFFFFFFFFFFFFFF NOT DUP4 AND DUP2 OR DUP5 SSTORE PUSH1 0x40 MLOAD SWAP2 SWAP1 SWAP3 AND SWAP3 DUP4 SWAP2 PUSH32 0x8BE0079C531659141344CD1FD0A4F28419497F9722A3DAAFE3B4186F6B6457E0 SWAP2 SWAP1 LOG3 POP POP JUMP JUMPDEST PUSH2 0x117E DUP5 PUSH4 0x23B872DD PUSH1 0xE0 SHL DUP6 DUP6 DUP6 PUSH1 0x40 MLOAD PUSH1 0x24 ADD PUSH2 0x11A3 SWAP4 SWAP3 SWAP2 SWAP1 PUSH2 0x154C JUMP JUMPDEST CALLER SWAP1 JUMP JUMPDEST PUSH1 0x0 PUSH2 0x12DE DUP3 PUSH1 0x40 MLOAD DUP1 PUSH1 0x40 ADD PUSH1 0x40 MSTORE DUP1 PUSH1 0x20 DUP2 MSTORE PUSH1 0x20 ADD PUSH32 0x5361666545524332303A206C6F772D6C6576656C2063616C6C206661696C6564 DUP2 MSTORE POP DUP6 PUSH1 0x1 PUSH1 0x1 PUSH1 0xA0 SHL SUB AND PUSH2 0x1318 SWAP1 SWAP3 SWAP2 SWAP1 PUSH4 0xFFFFFFFF AND JUMP JUMPDEST DUP1 MLOAD SWAP1 SWAP2 POP ISZERO PUSH2 0xD44 JUMPI DUP1 DUP1 PUSH1 0x20 ADD SWAP1 MLOAD DUP2 ADD SWAP1 PUSH2 0x12FC SWAP2 SWAP1 PUSH2 0x1453 JUMP JUMPDEST PUSH2 0xD44 JUMPI PUSH1 0x40 MLOAD PUSH3 0x461BCD PUSH1 0xE5 SHL DUP2 MSTORE PUSH1 0x4 ADD PUSH2 0x398 SWAP1 PUSH2 0x177C JUMP JUMPDEST PUSH1 0x60 PUSH2 0x1327 DUP5 DUP5 PUSH1 0x0 DUP6 PUSH2 0x132F JUMP JUMPDEST SWAP5 SWAP4 POP POP POP POP JUMP JUMPDEST PUSH1 0x60 DUP3 SELFBALANCE LT ISZERO PUSH2 0x1351 JUMPI PUSH1 0x40 MLOAD PUSH3 0x461BCD PUSH1 0xE5 SHL DUP2 MSTORE PUSH1 0x4 ADD PUSH2 0x398 SWAP1 PUSH2 0x1647 JUMP JUMPDEST PUSH2 0x135A DUP6 PUSH2 0x13EF JUMP JUMPDEST PUSH2 0x1376 JUMPI PUSH1 0x40 MLOAD PUSH3 0x461BCD PUSH1 0xE5 SHL DUP2 MSTORE PUSH1 0x4 ADD PUSH2 0x398 SWAP1 PUSH2 0x170E JUMP JUMPDEST PUSH1 0x0 DUP1 DUP7 PUSH1 0x1 PUSH1 0x1 PUSH1 0xA0 SHL SUB AND DUP6 DUP8 PUSH1 0x40 MLOAD PUSH2 0x1392 SWAP2 SWAP1 PUSH2 0x151C JUMP JUMPDEST PUSH1 0x0 PUSH1 0x40 MLOAD DUP1 DUP4 SUB DUP2 DUP6 DUP8 GAS CALL SWAP3 POP POP POP RETURNDATASIZE DUP1 PUSH1 0x0 DUP2 EQ PUSH2 0x13CF JUMPI PUSH1 0x40 MLOAD SWAP2 POP PUSH1 0x1F NOT PUSH1 0x3F RETURNDATASIZE ADD AND DUP3 ADD PUSH1 0x40 MSTORE RETURNDATASIZE DUP3 MSTORE RETURNDATASIZE PUSH1 0x0 PUSH1 0x20 DUP5 ADD RETURNDATACOPY PUSH2 0x13D4 JUMP JUMPDEST PUSH1 0x60 SWAP2 POP JUMPDEST POP SWAP2 POP SWAP2 POP PUSH2 0x13E4 DUP3 DUP3 DUP7 PUSH2 0x13FE JUMP JUMPDEST SWAP8 SWAP7 POP POP POP POP POP POP POP JUMP JUMPDEST PUSH1 0x1 PUSH1 0x1 PUSH1 0xA0 SHL SUB AND EXTCODESIZE ISZERO ISZERO SWAP1 JUMP JUMPDEST PUSH1 0x60 DUP4 ISZERO PUSH2 0x140D JUMPI POP DUP2 PUSH2 0xC8B JUMP JUMPDEST DUP3 MLOAD ISZERO PUSH2 0x141D JUMPI DUP3 MLOAD DUP1 DUP5 PUSH1 0x20 ADD REVERT JUMPDEST DUP2 PUSH1 0x40 MLOAD PUSH3 0x461BCD PUSH1 0xE5 SHL DUP2 MSTORE PUSH1 0x4 ADD PUSH2 0x398 SWAP2 SWAP1 PUSH2 0x15B7 JUMP JUMPDEST PUSH1 0x0 PUSH1 0x20 DUP3 DUP5 SUB SLT ISZERO PUSH2 0x1448 JUMPI DUP1 DUP2 REVERT JUMPDEST DUP2 CALLDATALOAD PUSH2 0xC8B DUP2 PUSH2 0x195C JUMP JUMPDEST PUSH1 0x0 PUSH1 0x20 DUP3 DUP5 SUB SLT ISZERO PUSH2 0x1464 JUMPI DUP1 DUP2 REVERT JUMPDEST DUP2 MLOAD PUSH2 0xC8B DUP2 PUSH2 0x1971 JUMP JUMPDEST PUSH1 0x0 DUP1 PUSH1 0x40 DUP4 DUP6 SUB SLT ISZERO PUSH2 0x1481 JUMPI DUP1 DUP2 REVERT JUMPDEST DUP3 CALLDATALOAD PUSH2 0x148C DUP2 PUSH2 0x195C JUMP JUMPDEST SWAP2 POP PUSH1 0x20 DUP4 ADD CALLDATALOAD PUSH2 0x149C DUP2 PUSH2 0x1971 JUMP JUMPDEST DUP1 SWAP2 POP POP SWAP3 POP SWAP3 SWAP1 POP JUMP JUMPDEST PUSH1 0x0 PUSH1 0x20 DUP3 DUP5 SUB SLT ISZERO PUSH2 0x14B8 JUMPI DUP1 DUP2 REVERT JUMPDEST POP CALLDATALOAD SWAP2 SWAP1 POP JUMP JUMPDEST PUSH1 0x0 PUSH1 0x20 DUP3 DUP5 SUB SLT ISZERO PUSH2 0x14D0 JUMPI DUP1 DUP2 REVERT JUMPDEST POP MLOAD SWAP2 SWAP1 POP JUMP JUMPDEST PUSH1 0x0 DUP1 PUSH1 0x40 DUP4 DUP6 SUB SLT ISZERO PUSH2 0x14E9 JUMPI DUP2 DUP3 REVERT JUMPDEST DUP3 CALLDATALOAD SWAP2 POP PUSH1 0x20 DUP4 ADD CALLDATALOAD PUSH2 0x149C DUP2 PUSH2 0x195C JUMP JUMPDEST PUSH1 0x0 DUP1 PUSH1 0x40 DUP4 DUP6 SUB SLT ISZERO PUSH2 0x150D JUMPI DUP2 DUP3 REVERT JUMPDEST POP POP DUP1 CALLDATALOAD SWAP3 PUSH1 0x20 SWAP1 SWAP2 ADD CALLDATALOAD SWAP2 POP JUMP JUMPDEST PUSH1 0x0 DUP3 MLOAD PUSH2 0x152E DUP2 DUP5 PUSH1 0x20 DUP8 ADD PUSH2 0x18FF JUMP JUMPDEST SWAP2 SWAP1 SWAP2 ADD SWAP3 SWAP2 POP POP JUMP JUMPDEST PUSH1 0x1 PUSH1 0x1 PUSH1 0xA0 SHL SUB SWAP2 SWAP1 SWAP2 AND DUP2 MSTORE PUSH1 0x20 ADD SWAP1 JUMP JUMPDEST PUSH1 0x1 PUSH1 0x1 PUSH1 0xA0 SHL SUB SWAP4 DUP5 AND DUP2 MSTORE SWAP2 SWAP1 SWAP3 AND PUSH1 0x20 DUP3 ADD MSTORE PUSH1 0x40 DUP2 ADD SWAP2 SWAP1 SWAP2 MSTORE PUSH1 0x60 ADD SWAP1 JUMP JUMPDEST PUSH1 0x1 PUSH1 0x1 PUSH1 0xA0 SHL SUB SWAP3 SWAP1 SWAP3 AND DUP3 MSTORE PUSH1 0x20 DUP3 ADD MSTORE PUSH1 0x40 ADD SWAP1 JUMP JUMPDEST PUSH1 0x1 PUSH1 0x1 PUSH1 0xA0 SHL SUB SWAP6 SWAP1 SWAP6 AND DUP6 MSTORE PUSH1 0x20 DUP6 ADD SWAP4 SWAP1 SWAP4 MSTORE PUSH1 0x40 DUP5 ADD SWAP2 SWAP1 SWAP2 MSTORE PUSH1 0x60 DUP4 ADD MSTORE PUSH1 0x80 DUP3 ADD MSTORE PUSH1 0xA0 ADD SWAP1 JUMP JUMPDEST PUSH1 0x0 PUSH1 0x20 DUP3 MSTORE DUP3 MLOAD DUP1 PUSH1 0x20 DUP5 ADD MSTORE PUSH2 0x15D6 DUP2 PUSH1 0x40 DUP6 ADD PUSH1 0x20 DUP8 ADD PUSH2 0x18FF JUMP JUMPDEST PUSH1 0x1F ADD PUSH1 0x1F NOT AND SWAP2 SWAP1 SWAP2 ADD PUSH1 0x40 ADD SWAP3 SWAP2 POP POP JUMP JUMPDEST PUSH1 0x20 DUP1 DUP3 MSTORE PUSH1 0x26 SWAP1 DUP3 ADD MSTORE PUSH32 0x4F776E61626C653A206E6577206F776E657220697320746865207A65726F2061 PUSH1 0x40 DUP3 ADD MSTORE PUSH32 0x6464726573730000000000000000000000000000000000000000000000000000 PUSH1 0x60 DUP3 ADD MSTORE PUSH1 0x80 ADD SWAP1 JUMP JUMPDEST PUSH1 0x20 DUP1 DUP3 MSTORE PUSH1 0x26 SWAP1 DUP3 ADD MSTORE PUSH32 0x416464726573733A20696E73756666696369656E742062616C616E636520666F PUSH1 0x40 DUP3 ADD MSTORE PUSH32 0x722063616C6C0000000000000000000000000000000000000000000000000000 PUSH1 0x60 DUP3 ADD MSTORE PUSH1 0x80 ADD SWAP1 JUMP JUMPDEST PUSH1 0x20 DUP1 DUP3 MSTORE DUP2 DUP2 ADD MSTORE PUSH32 0x4F776E61626C653A2063616C6C6572206973206E6F7420746865206F776E6572 PUSH1 0x40 DUP3 ADD MSTORE PUSH1 0x60 ADD SWAP1 JUMP JUMPDEST PUSH1 0x20 DUP1 DUP3 MSTORE DUP2 DUP2 ADD MSTORE PUSH32 0x5472616E736665723A204E6F2062616C616E636520746F207472616E73666572 PUSH1 0x40 DUP3 ADD MSTORE PUSH1 0x60 ADD SWAP1 JUMP JUMPDEST PUSH1 0x20 DUP1 DUP3 MSTORE PUSH1 0x1D SWAP1 DUP3 ADD MSTORE PUSH32 0x416464726573733A2063616C6C20746F206E6F6E2D636F6E7472616374000000 PUSH1 0x40 DUP3 ADD MSTORE PUSH1 0x60 ADD SWAP1 JUMP JUMPDEST PUSH1 0x20 DUP1 DUP3 MSTORE PUSH1 0x12 SWAP1 DUP3 ADD MSTORE PUSH32 0x77697468647261773A206E6F7420676F6F640000000000000000000000000000 PUSH1 0x40 DUP3 ADD MSTORE PUSH1 0x60 ADD SWAP1 JUMP JUMPDEST PUSH1 0x20 DUP1 DUP3 MSTORE PUSH1 0x2A SWAP1 DUP3 ADD MSTORE PUSH32 0x5361666545524332303A204552433230206F7065726174696F6E20646964206E PUSH1 0x40 DUP3 ADD MSTORE PUSH32 0x6F74207375636365656400000000000000000000000000000000000000000000 PUSH1 0x60 DUP3 ADD MSTORE PUSH1 0x80 ADD SWAP1 JUMP JUMPDEST PUSH1 0x20 DUP1 DUP3 MSTORE PUSH1 0x30 SWAP1 DUP3 ADD MSTORE PUSH32 0x556E7374616B696E672066656520706572696F642073686F756C642062652067 PUSH1 0x40 DUP3 ADD MSTORE PUSH32 0x726561746572207468616E207A65726F00000000000000000000000000000000 PUSH1 0x60 DUP3 ADD MSTORE PUSH1 0x80 ADD SWAP1 JUMP JUMPDEST PUSH1 0x20 DUP1 DUP3 MSTORE PUSH1 0x1F SWAP1 DUP3 ADD MSTORE PUSH32 0x5265656E7472616E637947756172643A207265656E7472616E742063616C6C00 PUSH1 0x40 DUP3 ADD MSTORE PUSH1 0x60 ADD SWAP1 JUMP JUMPDEST SWAP1 DUP2 MSTORE PUSH1 0x20 ADD SWAP1 JUMP JUMPDEST SWAP4 DUP5 MSTORE PUSH1 0x20 DUP5 ADD SWAP3 SWAP1 SWAP3 MSTORE PUSH1 0x40 DUP4 ADD MSTORE PUSH1 0x60 DUP3 ADD MSTORE PUSH1 0x80 ADD SWAP1 JUMP JUMPDEST PUSH1 0x0 DUP3 NOT DUP3 GT ISZERO PUSH2 0x18A4 JUMPI PUSH2 0x18A4 PUSH2 0x1946 JUMP JUMPDEST POP ADD SWAP1 JUMP JUMPDEST PUSH1 0x0 DUP3 PUSH2 0x18C4 JUMPI PUSH4 0x4E487B71 PUSH1 0xE0 SHL DUP2 MSTORE PUSH1 0x12 PUSH1 0x4 MSTORE PUSH1 0x24 DUP2 REVERT JUMPDEST POP DIV SWAP1 JUMP JUMPDEST PUSH1 0x0 DUP2 PUSH1 0x0 NOT DIV DUP4 GT DUP3 ISZERO ISZERO AND ISZERO PUSH2 0x18E3 JUMPI PUSH2 0x18E3 PUSH2 0x1946 JUMP JUMPDEST POP MUL SWAP1 JUMP JUMPDEST PUSH1 0x0 DUP3 DUP3 LT ISZERO PUSH2 0x18FA JUMPI PUSH2 0x18FA PUSH2 0x1946 JUMP JUMPDEST POP SUB SWAP1 JUMP JUMPDEST PUSH1 0x0 JUMPDEST DUP4 DUP2 LT ISZERO PUSH2 0x191A JUMPI DUP2 DUP2 ADD MLOAD DUP4 DUP3 ADD MSTORE PUSH1 0x20 ADD PUSH2 0x1902 JUMP JUMPDEST DUP4 DUP2 GT ISZERO PUSH2 0x117E JUMPI POP POP PUSH1 0x0 SWAP2 ADD MSTORE JUMP JUMPDEST PUSH1 0x0 PUSH1 0x0 NOT DUP3 EQ ISZERO PUSH2 0x193F JUMPI PUSH2 0x193F PUSH2 0x1946 JUMP JUMPDEST POP PUSH1 0x1 ADD SWAP1 JUMP JUMPDEST PUSH4 0x4E487B71 PUSH1 0xE0 SHL PUSH1 0x0 MSTORE PUSH1 0x11 PUSH1 0x4 MSTORE PUSH1 0x24 PUSH1 0x0 REVERT JUMPDEST PUSH1 0x1 PUSH1 0x1 PUSH1 0xA0 SHL SUB DUP2 AND DUP2 EQ PUSH2 0x7E6 JUMPI PUSH1 0x0 DUP1 REVERT JUMPDEST DUP1 ISZERO ISZERO DUP2 EQ PUSH2 0x7E6 JUMPI PUSH1 0x0 DUP1 REVERT INVALID LOG2 PUSH5 0x6970667358 0x22 SLT KECCAK256 SWAP11 REVERT 0xFB TIMESTAMP ISZERO DUP16 TIMESTAMP LT 0xAC CODESIZE DUP7 LT 0xEB MSIZE PUSH29 0xFC948B7B37E3745092B808FDF29A786A0F64736F6C6343000801003300 "
        },
        "methodIdentifiers": {
          "BONUS_MULTIPLIER()": "8aa28550",
          "add(address,bool)": "6e983466",
          "deposit(uint256,uint256)": "e2bbb158",
          "emergencyWithdraw(uint256)": "5312ea8e",
          "getMultiplier(uint256,uint256)": "8dbb1e3a",
          "massUpdatePools()": "630b5ba1",
          "owner()": "8da5cb5b",
          "pendingWaka(uint256,address)": "78d50450",
          "poolInfo(uint256)": "1526fe27",
          "poolLength()": "081e3eda",
          "renounceOwnership()": "715018a6",
          "rewardContract()": "6ea69d62",
          "setRewardContract(address)": "51508f0a",
          "setUnstakingFeePeriod(uint256)": "1ce529cb",
          "startStamp()": "5540421b",
          "totalLockedUpRewards()": "474fa630",
          "transferOwnership(address)": "f2fde38b",
          "transferStakedTokens(uint256,uint256)": "d49bc65e",
          "unstakingFeePeriod()": "9be885e5",
          "updatePool(uint256)": "51eb05a6",
          "userInfo(uint256,address)": "93f1a40b",
          "waka()": "dccd4d69",
          "withdraw(uint256,uint256)": "441a3e70"
        }
      }
    }
  }
}