{
  "_format": "hh-sol-artifact-1",
  "contractName": "RewardPool",
  "sourceName": "contracts/RewardPool.sol",
  "abi": [
    {
      "inputs": [
        {
          "internalType": "address",
          "name": "_tokenStaking",
          "type": "address"
        },
        {
          "internalType": "address",
          "name": "_WakaToken",
          "type": "address"
        }
      ],
      "stateMutability": "nonpayable",
      "type": "constructor"
    },
    {
      "anonymous": false,
      "inputs": [
        {
          "indexed": true,
          "internalType": "address",
          "name": "previousOwner",
          "type": "address"
        },
        {
          "indexed": true,
          "internalType": "address",
          "name": "newOwner",
          "type": "address"
        }
      ],
      "name": "OwnershipTransferred",
      "type": "event"
    },
    {
      "inputs": [],
      "name": "WakaToken",
      "outputs": [
        {
          "internalType": "contract IWakaToken",
          "name": "",
          "type": "address"
        }
      ],
      "stateMutability": "view",
      "type": "function"
    },
    {
      "inputs": [
        {
          "internalType": "uint256",
          "name": "_amount",
          "type": "uint256"
        }
      ],
      "name": "approveWaka",
      "outputs": [
        {
          "internalType": "bool",
          "name": "",
          "type": "bool"
        }
      ],
      "stateMutability": "nonpayable",
      "type": "function"
    },
    {
      "inputs": [],
      "name": "owner",
      "outputs": [
        {
          "internalType": "address",
          "name": "",
          "type": "address"
        }
      ],
      "stateMutability": "view",
      "type": "function"
    },
    {
      "inputs": [],
      "name": "renounceOwnership",
      "outputs": [],
      "stateMutability": "nonpayable",
      "type": "function"
    },
    {
      "inputs": [
        {
          "internalType": "address",
          "name": "_tokenStaking",
          "type": "address"
        }
      ],
      "name": "setTokenStakingAddress",
      "outputs": [],
      "stateMutability": "nonpayable",
      "type": "function"
    },
    {
      "inputs": [
        {
          "internalType": "address",
          "name": "_WakaToken",
          "type": "address"
        }
      ],
      "name": "setWakaTokenAddress",
      "outputs": [],
      "stateMutability": "nonpayable",
      "type": "function"
    },
    {
      "inputs": [],
      "name": "tokenStaking",
      "outputs": [
        {
          "internalType": "address",
          "name": "",
          "type": "address"
        }
      ],
      "stateMutability": "view",
      "type": "function"
    },
    {
      "inputs": [
        {
          "internalType": "address",
          "name": "newOwner",
          "type": "address"
        }
      ],
      "name": "transferOwnership",
      "outputs": [],
      "stateMutability": "nonpayable",
      "type": "function"
    },
    {
      "inputs": [
        {
          "internalType": "address",
          "name": "_address",
          "type": "address"
        },
        {
          "internalType": "uint256",
          "name": "_amount",
          "type": "uint256"
        }
      ],
      "name": "withdrawWaka",
      "outputs": [],
      "stateMutability": "nonpayable",
      "type": "function"
    }
  ],
  "bytecode": "0x608060405234801561001057600080fd5b5060405161079438038061079483398101604081905261002f916100e0565b61003f61003a610070565b610074565b600180546001600160a01b039384166001600160a01b03199182161790915560028054929093169116179055610112565b3390565b600080546001600160a01b038381166001600160a01b0319831681178455604051919092169283917f8be0079c531659141344cd1fd0a4f28419497f9722a3daafe3b4186f6b6457e09190a35050565b80516001600160a01b03811681146100db57600080fd5b919050565b600080604083850312156100f2578182fd5b6100fb836100c4565b9150610109602084016100c4565b90509250929050565b610673806101216000396000f3fe608060405234801561001057600080fd5b50600436106100a35760003560e01c8063c6bf1ab111610076578063d5a6ac361161005b578063d5a6ac361461011e578063dbec09f514610126578063f2fde38b14610139576100a3565b8063c6bf1ab1146100eb578063c6cdfc751461010b576100a3565b8063715018a6146100a8578063723bd8f3146100b25780637dc30ede146100c55780638da5cb5b146100e3575b600080fd5b6100b061014c565b005b6100b06100c03660046104bc565b610160565b6100cd6101aa565b6040516100da919061053e565b60405180910390f35b6100cd6101b9565b6100fe6100f9366004610526565b6101c8565b6040516100da919061056b565b6100b06101193660046104bc565b61028c565b6100cd6102d6565b6100b06101343660046104dd565b6102e5565b6100b06101473660046104bc565b6103cb565b610154610405565b61015e6000610444565b565b610168610405565b6001600160a01b03811661017b57600080fd5b6002805473ffffffffffffffffffffffffffffffffffffffff19166001600160a01b0392909216919091179055565b6001546001600160a01b031681565b6000546001600160a01b031690565b6001546000906001600160a01b03166101e057600080fd5b6002546001546040517f095ea7b30000000000000000000000000000000000000000000000000000000081526001600160a01b039283169263095ea7b39261022f929116908690600401610552565b602060405180830381600087803b15801561024957600080fd5b505af115801561025d573d6000803e3d6000fd5b505050506040513d601f19601f820116820180604052508101906102819190610506565b50600190505b919050565b610294610405565b6001600160a01b0381166102a757600080fd5b6001805473ffffffffffffffffffffffffffffffffffffffff19166001600160a01b0392909216919091179055565b6002546001600160a01b031681565b6102ed610405565b6001600160a01b03821661030057600080fd5b600081116103295760405162461bcd60e51b8152600401610320906105d3565b60405180910390fd5b6002546040517fa9059cbb0000000000000000000000000000000000000000000000000000000081526001600160a01b039091169063a9059cbb906103749085908590600401610552565b602060405180830381600087803b15801561038e57600080fd5b505af11580156103a2573d6000803e3d6000fd5b505050506040513d601f19601f820116820180604052508101906103c69190610506565b505050565b6103d3610405565b6001600160a01b0381166103f95760405162461bcd60e51b815260040161032090610576565b61040281610444565b50565b61040d6104a1565b6001600160a01b031661041e6101b9565b6001600160a01b03161461015e5760405162461bcd60e51b815260040161032090610608565b600080546001600160a01b0383811673ffffffffffffffffffffffffffffffffffffffff19831681178455604051919092169283917f8be0079c531659141344cd1fd0a4f28419497f9722a3daafe3b4186f6b6457e09190a35050565b3390565b80356001600160a01b038116811461028757600080fd5b6000602082840312156104cd578081fd5b6104d6826104a5565b9392505050565b600080604083850312156104ef578081fd5b6104f8836104a5565b946020939093013593505050565b600060208284031215610517578081fd5b815180151581146104d6578182fd5b600060208284031215610537578081fd5b5035919050565b6001600160a01b0391909116815260200190565b6001600160a01b03929092168252602082015260400190565b901515815260200190565b60208082526026908201527f4f776e61626c653a206e6577206f776e657220697320746865207a65726f206160408201527f6464726573730000000000000000000000000000000000000000000000000000606082015260800190565b6020808252818101527f57697468647261773a204e6f2062616c616e636520746f207769746864726177604082015260600190565b6020808252818101527f4f776e61626c653a2063616c6c6572206973206e6f7420746865206f776e657260408201526060019056fea2646970667358221220f0cd45e3889267b072ec72c12640507d1aa4ef0f8c59f28fec11524d0005ba8064736f6c63430008010033",
  "linkReferences": {},
  "deployedLinkReferences": {}
}