{
  "_format": "hh-sol-artifact-1",
  "contractName": "TokenStaking",
  "sourceName": "contracts/TokenStaking.sol",
  "abi": [
    {
      "inputs": [
        {
          "internalType": "contract WakaToken",
          "name": "_waka",
          "type": "address"
        },
        {
          "internalType": "uint256",
          "name": "_startStamp",
          "type": "uint256"
        }
      ],
      "stateMutability": "nonpayable",
      "type": "constructor"
    },
    {
      "anonymous": false,
      "inputs": [
        {
          "indexed": true,
          "internalType": "address",
          "name": "user",
          "type": "address"
        },
        {
          "indexed": true,
          "internalType": "uint256",
          "name": "pid",
          "type": "uint256"
        },
        {
          "indexed": false,
          "internalType": "uint256",
          "name": "amount",
          "type": "uint256"
        }
      ],
      "name": "Deposit",
      "type": "event"
    },
    {
      "anonymous": false,
      "inputs": [
        {
          "indexed": true,
          "internalType": "address",
          "name": "user",
          "type": "address"
        },
        {
          "indexed": true,
          "internalType": "uint256",
          "name": "pid",
          "type": "uint256"
        },
        {
          "indexed": false,
          "internalType": "uint256",
          "name": "amount",
          "type": "uint256"
        }
      ],
      "name": "EmergencyWithdraw",
      "type": "event"
    },
    {
      "anonymous": false,
      "inputs": [
        {
          "indexed": true,
          "internalType": "address",
          "name": "caller",
          "type": "address"
        },
        {
          "indexed": false,
          "internalType": "uint256",
          "name": "previousAmount",
          "type": "uint256"
        },
        {
          "indexed": false,
          "internalType": "uint256",
          "name": "newAmount",
          "type": "uint256"
        }
      ],
      "name": "EmissionRateUpdated",
      "type": "event"
    },
    {
      "anonymous": false,
      "inputs": [
        {
          "indexed": true,
          "internalType": "address",
          "name": "previousOwner",
          "type": "address"
        },
        {
          "indexed": true,
          "internalType": "address",
          "name": "newOwner",
          "type": "address"
        }
      ],
      "name": "OwnershipTransferred",
      "type": "event"
    },
    {
      "anonymous": false,
      "inputs": [
        {
          "indexed": true,
          "internalType": "address",
          "name": "user",
          "type": "address"
        },
        {
          "indexed": true,
          "internalType": "uint256",
          "name": "pid",
          "type": "uint256"
        },
        {
          "indexed": false,
          "internalType": "uint256",
          "name": "amountLockedUp",
          "type": "uint256"
        }
      ],
      "name": "RewardLockedUp",
      "type": "event"
    },
    {
      "anonymous": false,
      "inputs": [
        {
          "indexed": true,
          "internalType": "address",
          "name": "user",
          "type": "address"
        },
        {
          "indexed": true,
          "internalType": "uint256",
          "name": "pid",
          "type": "uint256"
        },
        {
          "indexed": false,
          "internalType": "uint256",
          "name": "amount",
          "type": "uint256"
        }
      ],
      "name": "Withdraw",
      "type": "event"
    },
    {
      "inputs": [],
      "name": "BONUS_MULTIPLIER",
      "outputs": [
        {
          "internalType": "uint256",
          "name": "",
          "type": "uint256"
        }
      ],
      "stateMutability": "view",
      "type": "function"
    },
    {
      "inputs": [
        {
          "internalType": "contract IERC20",
          "name": "_lpToken",
          "type": "address"
        },
        {
          "internalType": "bool",
          "name": "_withUpdate",
          "type": "bool"
        }
      ],
      "name": "add",
      "outputs": [],
      "stateMutability": "nonpayable",
      "type": "function"
    },
    {
      "inputs": [
        {
          "internalType": "uint256",
          "name": "_pid",
          "type": "uint256"
        },
        {
          "internalType": "uint256",
          "name": "_amount",
          "type": "uint256"
        }
      ],
      "name": "deposit",
      "outputs": [],
      "stateMutability": "nonpayable",
      "type": "function"
    },
    {
      "inputs": [
        {
          "internalType": "uint256",
          "name": "_pid",
          "type": "uint256"
        }
      ],
      "name": "emergencyWithdraw",
      "outputs": [],
      "stateMutability": "nonpayable",
      "type": "function"
    },
    {
      "inputs": [
        {
          "internalType": "uint256",
          "name": "_from",
          "type": "uint256"
        },
        {
          "internalType": "uint256",
          "name": "_to",
          "type": "uint256"
        }
      ],
      "name": "getMultiplier",
      "outputs": [
        {
          "internalType": "uint256",
          "name": "",
          "type": "uint256"
        }
      ],
      "stateMutability": "pure",
      "type": "function"
    },
    {
      "inputs": [],
      "name": "massUpdatePools",
      "outputs": [],
      "stateMutability": "nonpayable",
      "type": "function"
    },
    {
      "inputs": [],
      "name": "owner",
      "outputs": [
        {
          "internalType": "address",
          "name": "",
          "type": "address"
        }
      ],
      "stateMutability": "view",
      "type": "function"
    },
    {
      "inputs": [
        {
          "internalType": "uint256",
          "name": "_pid",
          "type": "uint256"
        },
        {
          "internalType": "address",
          "name": "_user",
          "type": "address"
        }
      ],
      "name": "pendingWaka",
      "outputs": [
        {
          "internalType": "uint256",
          "name": "",
          "type": "uint256"
        }
      ],
      "stateMutability": "view",
      "type": "function"
    },
    {
      "inputs": [
        {
          "internalType": "uint256",
          "name": "",
          "type": "uint256"
        }
      ],
      "name": "poolInfo",
      "outputs": [
        {
          "internalType": "contract IERC20",
          "name": "lpToken",
          "type": "address"
        },
        {
          "internalType": "uint256",
          "name": "lastRewardStamp",
          "type": "uint256"
        },
        {
          "internalType": "uint256",
          "name": "accWakaPerShare",
          "type": "uint256"
        },
        {
          "internalType": "uint256",
          "name": "totalDeposits",
          "type": "uint256"
        },
        {
          "internalType": "uint256",
          "name": "totalRewarded",
          "type": "uint256"
        }
      ],
      "stateMutability": "view",
      "type": "function"
    },
    {
      "inputs": [],
      "name": "poolLength",
      "outputs": [
        {
          "internalType": "uint256",
          "name": "",
          "type": "uint256"
        }
      ],
      "stateMutability": "view",
      "type": "function"
    },
    {
      "inputs": [],
      "name": "renounceOwnership",
      "outputs": [],
      "stateMutability": "nonpayable",
      "type": "function"
    },
    {
      "inputs": [],
      "name": "rewardContract",
      "outputs": [
        {
          "internalType": "address",
          "name": "",
          "type": "address"
        }
      ],
      "stateMutability": "view",
      "type": "function"
    },
    {
      "inputs": [
        {
          "internalType": "address",
          "name": "_rewardContract",
          "type": "address"
        }
      ],
      "name": "setRewardContract",
      "outputs": [],
      "stateMutability": "nonpayable",
      "type": "function"
    },
    {
      "inputs": [
        {
          "internalType": "uint256",
          "name": "_unstakingFeePeriod",
          "type": "uint256"
        }
      ],
      "name": "setUnstakingFeePeriod",
      "outputs": [],
      "stateMutability": "nonpayable",
      "type": "function"
    },
    {
      "inputs": [],
      "name": "startStamp",
      "outputs": [
        {
          "internalType": "uint256",
          "name": "",
          "type": "uint256"
        }
      ],
      "stateMutability": "view",
      "type": "function"
    },
    {
      "inputs": [],
      "name": "totalLockedUpRewards",
      "outputs": [
        {
          "internalType": "uint256",
          "name": "",
          "type": "uint256"
        }
      ],
      "stateMutability": "view",
      "type": "function"
    },
    {
      "inputs": [
        {
          "internalType": "address",
          "name": "newOwner",
          "type": "address"
        }
      ],
      "name": "transferOwnership",
      "outputs": [],
      "stateMutability": "nonpayable",
      "type": "function"
    },
    {
      "inputs": [
        {
          "internalType": "uint256",
          "name": "_pid",
          "type": "uint256"
        },
        {
          "internalType": "uint256",
          "name": "_amount",
          "type": "uint256"
        }
      ],
      "name": "transferStakedTokens",
      "outputs": [],
      "stateMutability": "nonpayable",
      "type": "function"
    },
    {
      "inputs": [],
      "name": "unstakingFeePeriod",
      "outputs": [
        {
          "internalType": "uint256",
          "name": "",
          "type": "uint256"
        }
      ],
      "stateMutability": "view",
      "type": "function"
    },
    {
      "inputs": [
        {
          "internalType": "uint256",
          "name": "_pid",
          "type": "uint256"
        }
      ],
      "name": "updatePool",
      "outputs": [],
      "stateMutability": "nonpayable",
      "type": "function"
    },
    {
      "inputs": [
        {
          "internalType": "uint256",
          "name": "",
          "type": "uint256"
        },
        {
          "internalType": "address",
          "name": "",
          "type": "address"
        }
      ],
      "name": "userInfo",
      "outputs": [
        {
          "internalType": "uint256",
          "name": "amount",
          "type": "uint256"
        },
        {
          "internalType": "uint256",
          "name": "rewardDebt",
          "type": "uint256"
        },
        {
          "internalType": "uint256",
          "name": "rewardLockedUp",
          "type": "uint256"
        },
        {
          "internalType": "uint256",
          "name": "stakedTime",
          "type": "uint256"
        }
      ],
      "stateMutability": "view",
      "type": "function"
    },
    {
      "inputs": [],
      "name": "waka",
      "outputs": [
        {
          "internalType": "contract WakaToken",
          "name": "",
          "type": "address"
        }
      ],
      "stateMutability": "view",
      "type": "function"
    },
    {
      "inputs": [
        {
          "internalType": "uint256",
          "name": "_pid",
          "type": "uint256"
        },
        {
          "internalType": "uint256",
          "name": "_amount",
          "type": "uint256"
        }
      ],
      "name": "withdraw",
      "outputs": [],
      "stateMutability": "nonpayable",
      "type": "function"
    }
  ],
  "bytecode": "0x6080604052612a306008553480156200001757600080fd5b5060405162001acf38038062001acf8339810160408190526200003a91620000d0565b6200004e620000486200007c565b62000080565b60018055600280546001600160a01b0319166001600160a01b0393909316929092179091556005556200010a565b3390565b600080546001600160a01b038381166001600160a01b0319831681178455604051919092169283917f8be0079c531659141344cd1fd0a4f28419497f9722a3daafe3b4186f6b6457e09190a35050565b60008060408385031215620000e3578182fd5b82516001600160a01b0381168114620000fa578283fd5b6020939093015192949293505050565b6119b5806200011a6000396000f3fe608060405234801561001057600080fd5b506004361061018d5760003560e01c80636ea69d62116100e357806393f1a40b1161008c578063dccd4d6911610066578063dccd4d69146102f1578063e2bbb158146102f9578063f2fde38b1461030c5761018d565b806393f1a40b146102b35780639be885e5146102d6578063d49bc65e146102de5761018d565b80638aa28550116100bd5780638aa28550146102905780638da5cb5b146102985780638dbb1e3a146102a05761018d565b80636ea69d6214610260578063715018a61461027557806378d504501461027d5761018d565b806351508f0a116101455780635540421b1161011f5780635540421b1461023d578063630b5ba1146102455780636e9834661461024d5761018d565b806351508f0a1461020457806351eb05a6146102175780635312ea8e1461022a5761018d565b80631ce529cb116101765780631ce529cb146101d4578063441a3e70146101e9578063474fa630146101fc5761018d565b8063081e3eda146101925780631526fe27146101b0575b600080fd5b61019a61031f565b6040516101a7919061186d565b60405180910390f35b6101c36101be3660046114a7565b610325565b6040516101a7959493929190611589565b6101e76101e23660046114a7565b610370565b005b6101e76101f73660046114fb565b6103a6565b61019a61062d565b6101e7610212366004611437565b610633565b6101e76102253660046114a7565b61067d565b6101e76102383660046114a7565b6107e9565b61019a6108ef565b6101e76108f5565b6101e761025b36600461146f565b610920565b610268610a76565b6040516101a79190611538565b6101e7610a85565b61019a61028b3660046114d7565b610a99565b61019a610c60565b610268610c65565b61019a6102ae3660046114fb565b610c74565b6102c66102c13660046114d7565b610c92565b6040516101a79493929190611876565b61019a610cc4565b6101e76102ec3660046114fb565b610cca565b610268610d49565b6101e76103073660046114fb565b610d58565b6101e761031a366004611437565b610f39565b60035490565b6003818154811061033557600080fd5b6000918252602090912060059091020180546001820154600283015460038401546004909401546001600160a01b0390931694509092909185565b610378610f70565b600081116103a15760405162461bcd60e51b8152600401610398906117d9565b60405180910390fd5b600855565b600260015414156103c95760405162461bcd60e51b815260040161039890611836565b60026001556007546001600160a01b03166103e357600080fd5b60006003838154811061040657634e487b7160e01b600052603260045260246000fd5b60009182526020808320868452600482526040808520338652909252922080546005909202909201925083111561044f5760405162461bcd60e51b815260040161039890611745565b6104588461067d565b6000610492826001015461048c64e8d4a5100061048687600201548760000154610faf90919063ffffffff16565b90610fbb565b90610fc7565b905083156105c65760008111806104ad575060008260020154115b1561051d5760006104cb836002015483610fd390919063ffffffff16565b90506104e68360020154600654610fc790919063ffffffff16565b60065560006002840155600754610507906001600160a01b03163383610fdf565b60048401546105169082610fd3565b6004850155505b6008546003830154610530904290610fc7565b101561058e57600061054d610546866064610fbb565b8690610fc7565b600385015490915061055f9086610fc7565b600385015582546105709086610fc7565b83558354610588906001600160a01b03163383611184565b506105c6565b600383015461059d9085610fc7565b600384015581546105ae9085610fc7565b825582546105c6906001600160a01b03163386611184565b600283015482546105e19164e8d4a510009161048691610faf565b6001830155604051859033907ff279e6a1f5e320cca91135676d9cb6e44ca8a08c0b88342bcdb1144f6511b5689061061a90889061186d565b60405180910390a3505060018055505050565b60065481565b61063b610f70565b6001600160a01b03811661064e57600080fd5b6007805473ffffffffffffffffffffffffffffffffffffffff19166001600160a01b0392909216919091179055565b6007546001600160a01b031661069257600080fd5b6000600382815481106106b557634e487b7160e01b600052603260045260246000fd5b90600052602060002090600502019050806001015442116106d657506107e6565b6003810154806106ed5750426001909101556107e6565b60006106fd836001015442610c74565b6002546007546040516370a0823160e01b81529293506000926001600160a01b03928316926370a082319261073792911690600401611538565b60206040518083038186803b15801561074f57600080fd5b505afa158015610763573d6000803e3d6000fd5b505050506040513d601f19601f8201168201806040525081019061078791906114bf565b905060006107a0610e106104866018818661016d610fbb565b905060006107ae8483610faf565b90506107d16107c6866104868464e8d4a51000610faf565b600288015490610fd3565b60028701555050426001909401939093555050505b50565b6002600154141561080c5760405162461bcd60e51b815260040161039890611836565b600260018190555060006003828154811061083757634e487b7160e01b600052603260045260246000fd5b6000918252602080832085845260048252604080852033808752935284208054858255600182018690556002820186905560038201959095556005909302018054909450919291610895916001600160a01b03919091169083611184565b60038301546108a49082610fc7565b6003840155604051849033907fbb757047c2b5f3974fe26b7c10f732e7bce710b0952a71082702781e62ae0595906108dd90859061186d565b60405180910390a35050600180555050565b60055481565b60035460005b8181101561091c5761090c8161067d565b6109158161192b565b90506108fb565b5050565b610928610f70565b8015610936576109366108f5565b600060055442116109495760055461094b565b425b6040805160a0810182526001600160a01b039586168152602081019283526000918101828152606082018381526080830184815260038054600181018255955292517fc2575a0e9e593c00f959f8c92f12db2869c3395a3b0502d05e2516446f71f85b6005909502948501805473ffffffffffffffffffffffffffffffffffffffff1916919099161790975592517fc2575a0e9e593c00f959f8c92f12db2869c3395a3b0502d05e2516446f71f85c83015591517fc2575a0e9e593c00f959f8c92f12db2869c3395a3b0502d05e2516446f71f85d82015593517fc2575a0e9e593c00f959f8c92f12db2869c3395a3b0502d05e2516446f71f85e850155517fc2575a0e9e593c00f959f8c92f12db2869c3395a3b0502d05e2516446f71f85f909301929092555050565b6007546001600160a01b031681565b610a8d610f70565b610a976000611207565b565b6007546000906001600160a01b0316610ab157600080fd5b600060038481548110610ad457634e487b7160e01b600052603260045260246000fd5b600091825260208083208784526004825260408085206001600160a01b03891686529092529220600260059092029092019081015460038201546001830154929450909142118015610b2557508015155b15610c11576000610b3a856001015442610c74565b6002546007546040516370a0823160e01b81529293506000926001600160a01b03928316926370a0823192610b7492911690600401611538565b60206040518083038186803b158015610b8c57600080fd5b505afa158015610ba0573d6000803e3d6000fd5b505050506040513d601f19601f82011682018060405250810190610bc491906114bf565b90506000610bdd610e106104866018818661016d610fbb565b90506000610beb8483610faf565b9050610c0a610c03866104868464e8d4a51000610faf565b8790610fd3565b9550505050505b6000610c3b846001015461048c64e8d4a51000610486878960000154610faf90919063ffffffff16565b9050610c54846002015482610fd390919063ffffffff16565b98975050505050505050565b600181565b6000546001600160a01b031690565b6000610c8b6001610c858486610fc7565b90610faf565b9392505050565b600460209081526000928352604080842090915290825290208054600182015460028301546003909301549192909184565b60085481565b610cd2610f70565b60008111610cf25760405162461bcd60e51b8152600401610398906116d9565b600060038381548110610d1557634e487b7160e01b600052603260045260246000fd5b600091825260209091206007546005909202018054909250610d44916001600160a01b03918216911684611184565b505050565b6002546001600160a01b031681565b60026001541415610d7b5760405162461bcd60e51b815260040161039890611836565b60026001556007546001600160a01b0316610d9557600080fd5b600060038381548110610db857634e487b7160e01b600052603260045260246000fd5b60009182526020808320868452600482526040808520338652909252922060059091029091019150610de98461067d565b6000610e17826001015461048c64e8d4a5100061048687600201548760000154610faf90919063ffffffff16565b90506000811180610e2c575060008260020154115b15610e9c576000610e4a836002015483610fd390919063ffffffff16565b9050610e658360020154600654610fc790919063ffffffff16565b60065560006002840155600754610e86906001600160a01b03163383610fdf565b6004840154610e959082610fd3565b6004850155505b8315610ee5578254610eb9906001600160a01b0316333087611264565b8154610ec59085610fd3565b82556003830154610ed69085610fd3565b60038085019190915542908301555b60028301548254610f009164e8d4a510009161048691610faf565b6001830155604051859033907f90890809c654f11d6e72a28fa60149770a0d11ec6c92319d6ceb2bb0a4ea1a159061061a90889061186d565b610f41610f70565b6001600160a01b038116610f675760405162461bcd60e51b8152600401610398906115ea565b6107e681611207565b610f78611285565b6001600160a01b0316610f89610c65565b6001600160a01b031614610a975760405162461bcd60e51b8152600401610398906116a4565b6000610c8b82846118c9565b6000610c8b82846118a9565b6000610c8b82846118e8565b6000610c8b8284611891565b6002546040516370a0823160e01b81526000916001600160a01b0316906370a0823190611010908790600401611538565b60206040518083038186803b15801561102857600080fd5b505afa15801561103c573d6000803e3d6000fd5b505050506040513d601f19601f8201168201806040525081019061106091906114bf565b9050808211156110f6576002546040516323b872dd60e01b81526001600160a01b03909116906323b872dd9061109e9087908790869060040161154c565b602060405180830381600087803b1580156110b857600080fd5b505af11580156110cc573d6000803e3d6000fd5b505050506040513d601f19601f820116820180604052508101906110f09190611453565b5061117e565b6002546040516323b872dd60e01b81526001600160a01b03909116906323b872dd9061112a9087908790879060040161154c565b602060405180830381600087803b15801561114457600080fd5b505af1158015611158573d6000803e3d6000fd5b505050506040513d601f19601f8201168201806040525081019061117c9190611453565b505b50505050565b610d448363a9059cbb60e01b84846040516024016111a3929190611570565b60408051601f198184030181529190526020810180517bffffffffffffffffffffffffffffffffffffffffffffffffffffffff167fffffffff0000000000000000000000000000000000000000000000000000000090931692909217909152611289565b600080546001600160a01b0383811673ffffffffffffffffffffffffffffffffffffffff19831681178455604051919092169283917f8be0079c531659141344cd1fd0a4f28419497f9722a3daafe3b4186f6b6457e09190a35050565b61117e846323b872dd60e01b8585856040516024016111a39392919061154c565b3390565b60006112de826040518060400160405280602081526020017f5361666545524332303a206c6f772d6c6576656c2063616c6c206661696c6564815250856001600160a01b03166113189092919063ffffffff16565b805190915015610d4457808060200190518101906112fc9190611453565b610d445760405162461bcd60e51b81526004016103989061177c565b6060611327848460008561132f565b949350505050565b6060824710156113515760405162461bcd60e51b815260040161039890611647565b61135a856113ef565b6113765760405162461bcd60e51b81526004016103989061170e565b600080866001600160a01b03168587604051611392919061151c565b60006040518083038185875af1925050503d80600081146113cf576040519150601f19603f3d011682016040523d82523d6000602084013e6113d4565b606091505b50915091506113e48282866113fe565b979650505050505050565b6001600160a01b03163b151590565b6060831561140d575081610c8b565b82511561141d5782518084602001fd5b8160405162461bcd60e51b815260040161039891906115b7565b600060208284031215611448578081fd5b8135610c8b8161195c565b600060208284031215611464578081fd5b8151610c8b81611971565b60008060408385031215611481578081fd5b823561148c8161195c565b9150602083013561149c81611971565b809150509250929050565b6000602082840312156114b8578081fd5b5035919050565b6000602082840312156114d0578081fd5b5051919050565b600080604083850312156114e9578182fd5b82359150602083013561149c8161195c565b6000806040838503121561150d578182fd5b50508035926020909101359150565b6000825161152e8184602087016118ff565b9190910192915050565b6001600160a01b0391909116815260200190565b6001600160a01b039384168152919092166020820152604081019190915260600190565b6001600160a01b03929092168252602082015260400190565b6001600160a01b03959095168552602085019390935260408401919091526060830152608082015260a00190565b60006020825282518060208401526115d68160408501602087016118ff565b601f01601f19169190910160400192915050565b60208082526026908201527f4f776e61626c653a206e6577206f776e657220697320746865207a65726f206160408201527f6464726573730000000000000000000000000000000000000000000000000000606082015260800190565b60208082526026908201527f416464726573733a20696e73756666696369656e742062616c616e636520666f60408201527f722063616c6c0000000000000000000000000000000000000000000000000000606082015260800190565b6020808252818101527f4f776e61626c653a2063616c6c6572206973206e6f7420746865206f776e6572604082015260600190565b6020808252818101527f5472616e736665723a204e6f2062616c616e636520746f207472616e73666572604082015260600190565b6020808252601d908201527f416464726573733a2063616c6c20746f206e6f6e2d636f6e7472616374000000604082015260600190565b60208082526012908201527f77697468647261773a206e6f7420676f6f640000000000000000000000000000604082015260600190565b6020808252602a908201527f5361666545524332303a204552433230206f7065726174696f6e20646964206e60408201527f6f74207375636365656400000000000000000000000000000000000000000000606082015260800190565b60208082526030908201527f556e7374616b696e672066656520706572696f642073686f756c64206265206760408201527f726561746572207468616e207a65726f00000000000000000000000000000000606082015260800190565b6020808252601f908201527f5265656e7472616e637947756172643a207265656e7472616e742063616c6c00604082015260600190565b90815260200190565b93845260208401929092526040830152606082015260800190565b600082198211156118a4576118a4611946565b500190565b6000826118c457634e487b7160e01b81526012600452602481fd5b500490565b60008160001904831182151516156118e3576118e3611946565b500290565b6000828210156118fa576118fa611946565b500390565b60005b8381101561191a578181015183820152602001611902565b8381111561117e5750506000910152565b600060001982141561193f5761193f611946565b5060010190565b634e487b7160e01b600052601160045260246000fd5b6001600160a01b03811681146107e657600080fd5b80151581146107e657600080fdfea26469706673582212209afdfb42158f4210ac388610eb597cfc948b7b37e3745092b808fdf29a786a0f64736f6c63430008010033",
  "linkReferences": {},
  "deployedLinkReferences": {}
}