{
  "_format": "hh-sol-artifact-1",
  "contractName": "WakaToken",
  "sourceName": "contracts/WakaToken.sol",
  "abi": [
    {
      "inputs": [],
      "stateMutability": "nonpayable",
      "type": "constructor"
    },
    {
      "anonymous": false,
      "inputs": [
        {
          "indexed": true,
          "internalType": "address",
          "name": "owner",
          "type": "address"
        },
        {
          "indexed": true,
          "internalType": "address",
          "name": "spender",
          "type": "address"
        },
        {
          "indexed": false,
          "internalType": "uint256",
          "name": "value",
          "type": "uint256"
        }
      ],
      "name": "Approval",
      "type": "event"
    },
    {
      "anonymous": false,
      "inputs": [
        {
          "indexed": true,
          "internalType": "address",
          "name": "previousOwner",
          "type": "address"
        },
        {
          "indexed": true,
          "internalType": "address",
          "name": "newOwner",
          "type": "address"
        }
      ],
      "name": "OwnershipTransferred",
      "type": "event"
    },
    {
      "anonymous": false,
      "inputs": [
        {
          "indexed": true,
          "internalType": "address",
          "name": "from",
          "type": "address"
        },
        {
          "indexed": true,
          "internalType": "address",
          "name": "to",
          "type": "address"
        },
        {
          "indexed": false,
          "internalType": "uint256",
          "name": "value",
          "type": "uint256"
        }
      ],
      "name": "Transfer",
      "type": "event"
    },
    {
      "inputs": [
        {
          "internalType": "address",
          "name": "controller",
          "type": "address"
        }
      ],
      "name": "addController",
      "outputs": [],
      "stateMutability": "nonpayable",
      "type": "function"
    },
    {
      "inputs": [
        {
          "internalType": "address",
          "name": "tokenAddress",
          "type": "address"
        }
      ],
      "name": "airdrop",
      "outputs": [],
      "stateMutability": "nonpayable",
      "type": "function"
    },
    {
      "inputs": [
        {
          "internalType": "uint256",
          "name": "",
          "type": "uint256"
        }
      ],
      "name": "airdropAddress",
      "outputs": [
        {
          "internalType": "address",
          "name": "",
          "type": "address"
        }
      ],
      "stateMutability": "view",
      "type": "function"
    },
    {
      "inputs": [
        {
          "internalType": "uint256",
          "name": "",
          "type": "uint256"
        }
      ],
      "name": "airdropAmount",
      "outputs": [
        {
          "internalType": "uint256",
          "name": "",
          "type": "uint256"
        }
      ],
      "stateMutability": "view",
      "type": "function"
    },
    {
      "inputs": [
        {
          "internalType": "address",
          "name": "owner",
          "type": "address"
        },
        {
          "internalType": "address",
          "name": "spender",
          "type": "address"
        }
      ],
      "name": "allowance",
      "outputs": [
        {
          "internalType": "uint256",
          "name": "",
          "type": "uint256"
        }
      ],
      "stateMutability": "view",
      "type": "function"
    },
    {
      "inputs": [
        {
          "internalType": "address",
          "name": "spender",
          "type": "address"
        },
        {
          "internalType": "uint256",
          "name": "amount",
          "type": "uint256"
        }
      ],
      "name": "approve",
      "outputs": [
        {
          "internalType": "bool",
          "name": "",
          "type": "bool"
        }
      ],
      "stateMutability": "nonpayable",
      "type": "function"
    },
    {
      "inputs": [
        {
          "internalType": "address",
          "name": "account",
          "type": "address"
        }
      ],
      "name": "balanceOf",
      "outputs": [
        {
          "internalType": "uint256",
          "name": "",
          "type": "uint256"
        }
      ],
      "stateMutability": "view",
      "type": "function"
    },
    {
      "inputs": [
        {
          "internalType": "address",
          "name": "",
          "type": "address"
        }
      ],
      "name": "blacklistedUsers",
      "outputs": [
        {
          "internalType": "bool",
          "name": "",
          "type": "bool"
        }
      ],
      "stateMutability": "view",
      "type": "function"
    },
    {
      "inputs": [
        {
          "internalType": "uint256",
          "name": "amount",
          "type": "uint256"
        }
      ],
      "name": "burn",
      "outputs": [
        {
          "internalType": "bool",
          "name": "",
          "type": "bool"
        }
      ],
      "stateMutability": "nonpayable",
      "type": "function"
    },
    {
      "inputs": [],
      "name": "decimals",
      "outputs": [
        {
          "internalType": "uint8",
          "name": "",
          "type": "uint8"
        }
      ],
      "stateMutability": "view",
      "type": "function"
    },
    {
      "inputs": [
        {
          "internalType": "address",
          "name": "spender",
          "type": "address"
        },
        {
          "internalType": "uint256",
          "name": "subtractedValue",
          "type": "uint256"
        }
      ],
      "name": "decreaseAllowance",
      "outputs": [
        {
          "internalType": "bool",
          "name": "",
          "type": "bool"
        }
      ],
      "stateMutability": "nonpayable",
      "type": "function"
    },
    {
      "inputs": [],
      "name": "getOwner",
      "outputs": [
        {
          "internalType": "address",
          "name": "",
          "type": "address"
        }
      ],
      "stateMutability": "view",
      "type": "function"
    },
    {
      "inputs": [
        {
          "internalType": "address",
          "name": "spender",
          "type": "address"
        },
        {
          "internalType": "uint256",
          "name": "addedValue",
          "type": "uint256"
        }
      ],
      "name": "increaseAllowance",
      "outputs": [
        {
          "internalType": "bool",
          "name": "",
          "type": "bool"
        }
      ],
      "stateMutability": "nonpayable",
      "type": "function"
    },
    {
      "inputs": [
        {
          "internalType": "address",
          "name": "account",
          "type": "address"
        },
        {
          "internalType": "uint256",
          "name": "amount",
          "type": "uint256"
        }
      ],
      "name": "mint",
      "outputs": [
        {
          "internalType": "bool",
          "name": "",
          "type": "bool"
        }
      ],
      "stateMutability": "nonpayable",
      "type": "function"
    },
    {
      "inputs": [],
      "name": "name",
      "outputs": [
        {
          "internalType": "string",
          "name": "",
          "type": "string"
        }
      ],
      "stateMutability": "view",
      "type": "function"
    },
    {
      "inputs": [],
      "name": "owner",
      "outputs": [
        {
          "internalType": "address",
          "name": "",
          "type": "address"
        }
      ],
      "stateMutability": "view",
      "type": "function"
    },
    {
      "inputs": [
        {
          "internalType": "address",
          "name": "controller",
          "type": "address"
        }
      ],
      "name": "removeController",
      "outputs": [],
      "stateMutability": "nonpayable",
      "type": "function"
    },
    {
      "inputs": [],
      "name": "renounceOwnership",
      "outputs": [],
      "stateMutability": "nonpayable",
      "type": "function"
    },
    {
      "inputs": [
        {
          "internalType": "address[]",
          "name": "_airdropAddress",
          "type": "address[]"
        }
      ],
      "name": "setAirdropAddress",
      "outputs": [],
      "stateMutability": "nonpayable",
      "type": "function"
    },
    {
      "inputs": [
        {
          "internalType": "uint256[]",
          "name": "_airdropAmount",
          "type": "uint256[]"
        }
      ],
      "name": "setAirdropAmount",
      "outputs": [],
      "stateMutability": "nonpayable",
      "type": "function"
    },
    {
      "inputs": [
        {
          "internalType": "address",
          "name": "_addr",
          "type": "address"
        },
        {
          "internalType": "bool",
          "name": "_value",
          "type": "bool"
        }
      ],
      "name": "setBlacklisted",
      "outputs": [],
      "stateMutability": "nonpayable",
      "type": "function"
    },
    {
      "inputs": [
        {
          "internalType": "bool",
          "name": "_value",
          "type": "bool"
        }
      ],
      "name": "setTransferApproval",
      "outputs": [],
      "stateMutability": "nonpayable",
      "type": "function"
    },
    {
      "inputs": [],
      "name": "symbol",
      "outputs": [
        {
          "internalType": "string",
          "name": "",
          "type": "string"
        }
      ],
      "stateMutability": "view",
      "type": "function"
    },
    {
      "inputs": [],
      "name": "totalSupply",
      "outputs": [
        {
          "internalType": "uint256",
          "name": "",
          "type": "uint256"
        }
      ],
      "stateMutability": "view",
      "type": "function"
    },
    {
      "inputs": [
        {
          "internalType": "address",
          "name": "recipient",
          "type": "address"
        },
        {
          "internalType": "uint256",
          "name": "amount",
          "type": "uint256"
        }
      ],
      "name": "transfer",
      "outputs": [
        {
          "internalType": "bool",
          "name": "",
          "type": "bool"
        }
      ],
      "stateMutability": "nonpayable",
      "type": "function"
    },
    {
      "inputs": [],
      "name": "transferApproval",
      "outputs": [
        {
          "internalType": "bool",
          "name": "",
          "type": "bool"
        }
      ],
      "stateMutability": "view",
      "type": "function"
    },
    {
      "inputs": [
        {
          "internalType": "address",
          "name": "sender",
          "type": "address"
        },
        {
          "internalType": "address",
          "name": "recipient",
          "type": "address"
        },
        {
          "internalType": "uint256",
          "name": "amount",
          "type": "uint256"
        }
      ],
      "name": "transferFrom",
      "outputs": [
        {
          "internalType": "bool",
          "name": "",
          "type": "bool"
        }
      ],
      "stateMutability": "nonpayable",
      "type": "function"
    },
    {
      "inputs": [
        {
          "internalType": "address",
          "name": "newOwner",
          "type": "address"
        }
      ],
      "name": "transferOwnership",
      "outputs": [],
      "stateMutability": "nonpayable",
      "type": "function"
    }
  ],
  "bytecode": "0x6080604052600b805460ff191660011790553480156200001e57600080fd5b50620000336200002d6200013f565b62000143565b60408051808201909152600e8082526d29b834b7213630b2329021b7b4b760911b60209092019182526200006a9160089162000193565b506040805180820190915260048082526357616b6160e01b6020909201918252620000989160079162000193565b506006805460ff191660121790556b033b2e3c9fd0803ce8000000600581905560016000620000c66200013f565b6001600160a01b03168152602081019190915260400160002055620000ea6200013f565b6001600160a01b031660006001600160a01b03167fddf252ad1be2c89b69c2b068fc378daa952ba7f163c4a11628f55a4df523b3ef60055460405162000131919062000239565b60405180910390a36200027f565b3390565b600080546001600160a01b038381166001600160a01b0319831681178455604051919092169283917f8be0079c531659141344cd1fd0a4f28419497f9722a3daafe3b4186f6b6457e09190a35050565b828054620001a19062000242565b90600052602060002090601f016020900481019282620001c5576000855562000210565b82601f10620001e057805160ff191683800117855562000210565b8280016001018555821562000210579182015b8281111562000210578251825591602001919060010190620001f3565b506200021e92915062000222565b5090565b5b808211156200021e576000815560010162000223565b90815260200190565b6002810460018216806200025757607f821691505b602082108114156200027957634e487b7160e01b600052602260045260246000fd5b50919050565b61183a806200028f6000396000f3fe608060405234801561001057600080fd5b50600436106101c45760003560e01c8063893d20e8116100f9578063a9059cbb11610097578063d186ab6a11610071578063d186ab6a14610390578063dd62ed3e14610398578063f2fde38b146103ab578063f6a74ed7146103be576101c4565b8063a9059cbb14610357578063b6d45b901461036a578063d01dd6d21461037d576101c4565b80639d181d44116100d35780639d181d441461030b578063a457c2d71461031e578063a4d5a3a514610331578063a7fc7a0714610344576101c4565b8063893d20e8146102e65780638da5cb5b146102fb57806395d89b4114610303576101c4565b80633950935111610166578063668ba8c311610140578063668ba8c3146102a557806370a08231146102b8578063715018a6146102cb57806378e3f3f2146102d3576101c4565b8063395093511461026c57806340c10f191461027f57806342966c6814610292576101c4565b806321860a05116101a257806321860a051461021c57806322c0aec71461023157806323b872dd14610244578063313ce56714610257576101c4565b806306fdde03146101c9578063095ea7b3146101e757806318160ddd14610207575b600080fd5b6101d16103d1565b6040516101de9190611244565b60405180910390f35b6101fa6101f5366004611073565b610463565b6040516101de9190611239565b61020f610480565b6040516101de9190611644565b61022f61022a366004610fb6565b610486565b005b6101fa61023f366004610fb6565b610596565b6101fa610252366004611002565b6105ab565b61025f6106a3565b6040516101de919061164d565b6101fa61027a366004611073565b6106ac565b6101fa61028d366004611073565b6106fa565b6101fa6102a03660046111f4565b610733565b61022f6102b336600461109c565b61077c565b61020f6102c6366004610fb6565b610797565b61022f6107b2565b61022f6102e1366004611138565b6107c6565b6102ee6107e1565b6040516101de919061120c565b6102ee6107f0565b6101d16107ff565b61022f6103193660046111bc565b61080e565b6101fa61032c366004611073565b610852565b61020f61033f3660046111f4565b6108ba565b61022f610352366004610fb6565b6108db565b6101fa610365366004611073565b610907565b6102ee6103783660046111f4565b610983565b61022f61038b36600461103d565b6109ad565b6101fa610a1f565b61020f6103a6366004610fd0565b610a28565b61022f6103b9366004610fb6565b610a53565b61022f6103cc366004610fb6565b610a8d565b6060600880546103e0906116df565b80601f016020809104026020016040519081016040528092919081815260200182805461040c906116df565b80156104595780601f1061042e57610100808354040283529160200191610459565b820191906000526020600020905b81548152906001019060200180831161043c57829003601f168201915b5050505050905090565b6000610477610470610ab6565b8484610aba565b50600192915050565b60055490565b61048e610b6e565b60005b60095481101561059257816001600160a01b031663a9059cbb600983815481106104cb57634e487b7160e01b600052603260045260246000fd5b600091825260209091200154600a80546001600160a01b03909216918590811061050557634e487b7160e01b600052603260045260246000fd5b90600052602060002001546040518363ffffffff1660e01b815260040161052d929190611220565b602060405180830381600087803b15801561054757600080fd5b505af115801561055b573d6000803e3d6000fd5b505050506040513d601f19601f8201168201806040525081019061057f91906111d8565b508061058a8161171a565b915050610491565b5050565b60036020526000908152604090205460ff1681565b6000600360006105b9610ab6565b6001600160a01b0316815260208101919091526040016000205460ff16156105fc5760405162461bcd60e51b81526004016105f39061132b565b60405180910390fd5b600b5460ff1661061e5760405162461bcd60e51b81526004016105f390611362565b610629848484610bad565b61069984610635610ab6565b610694856040518060600160405280602881526020016117b8602891396001600160a01b038a16600090815260026020526040812090610673610ab6565b6001600160a01b031681526020810191909152604001600020549190610cb7565b610aba565b5060019392505050565b60065460ff1690565b60006104776106b9610ab6565b8461069485600260006106ca610ab6565b6001600160a01b03908116825260208083019390935260409182016000908120918c168152925290205490610ce3565b3360009081526004602052604081205460ff166107295760405162461bcd60e51b81526004016105f390611453565b6104778383610cf6565b3360009081526004602052604081205460ff166107625760405162461bcd60e51b81526004016105f39061148a565b61077361076d610ab6565b83610daa565b5060015b919050565b610784610b6e565b8051610592906009906020840190610edd565b6001600160a01b031660009081526001602052604090205490565b6107ba610b6e565b6107c46000610e74565b565b6107ce610b6e565b805161059290600a906020840190610f4f565b60006107eb6107f0565b905090565b6000546001600160a01b031690565b6060600780546103e0906116df565b610816610b6e565b600b5460ff161515811515141561083f5760405162461bcd60e51b81526004016105f3906112f4565b600b805460ff1916911515919091179055565b600061047761085f610ab6565b84610694856040518060600160405280602581526020016117e06025913960026000610889610ab6565b6001600160a01b03908116825260208083019390935260409182016000908120918d16815292529020549190610cb7565b600a81815481106108ca57600080fd5b600091825260209091200154905081565b6108e3610b6e565b6001600160a01b03166000908152600460205260409020805460ff19166001179055565b600060036000610915610ab6565b6001600160a01b0316815260208101919091526040016000205460ff161561094f5760405162461bcd60e51b81526004016105f39061132b565b600b5460ff166109715760405162461bcd60e51b81526004016105f390611362565b61047761097c610ab6565b8484610bad565b6009818154811061099357600080fd5b6000918252602090912001546001600160a01b0316905081565b6109b5610b6e565b6001600160a01b03821660009081526003602052604090205460ff16151581151514156109f45760405162461bcd60e51b81526004016105f3906112f4565b6001600160a01b03919091166000908152600360205260409020805460ff1916911515919091179055565b600b5460ff1681565b6001600160a01b03918216600090815260026020908152604080832093909416825291909152205490565b610a5b610b6e565b6001600160a01b038116610a815760405162461bcd60e51b81526004016105f390611399565b610a8a81610e74565b50565b610a95610b6e565b6001600160a01b03166000908152600460205260409020805460ff19169055565b3390565b6001600160a01b038316610ae05760405162461bcd60e51b81526004016105f3906115b0565b6001600160a01b038216610b065760405162461bcd60e51b81526004016105f3906113f6565b6001600160a01b0380841660008181526002602090815260408083209487168084529490915290819020849055517f8c5be1e5ebec7d5bd14f71427d1e84f3dd0314c0f7b2291e5b200ac8c7c3b92590610b61908590611644565b60405180910390a3505050565b610b76610ab6565b6001600160a01b0316610b876107f0565b6001600160a01b0316146107c45760405162461bcd60e51b81526004016105f3906114c1565b6001600160a01b038316610bd35760405162461bcd60e51b81526004016105f390611553565b6001600160a01b038216610bf95760405162461bcd60e51b81526004016105f390611297565b610c3681604051806060016040528060268152602001611792602691396001600160a01b0386166000908152600160205260409020549190610cb7565b6001600160a01b038085166000908152600160205260408082209390935590841681522054610c659082610ce3565b6001600160a01b0380841660008181526001602052604090819020939093559151908516907fddf252ad1be2c89b69c2b068fc378daa952ba7f163c4a11628f55a4df523b3ef90610b61908590611644565b60008184841115610cdb5760405162461bcd60e51b81526004016105f39190611244565b505050900390565b6000610cef82846116b0565b9392505050565b6001600160a01b038216610d1c5760405162461bcd60e51b81526004016105f39061160d565b600554610d299082610ce3565b6005556001600160a01b038216600090815260016020526040902054610d4f9082610ce3565b6001600160a01b0383166000818152600160205260408082209390935591519091907fddf252ad1be2c89b69c2b068fc378daa952ba7f163c4a11628f55a4df523b3ef90610d9e908590611644565b60405180910390a35050565b6001600160a01b038216610dd05760405162461bcd60e51b81526004016105f3906114f6565b610e0d81604051806060016040528060228152602001611770602291396001600160a01b0385166000908152600160205260409020549190610cb7565b6001600160a01b038316600090815260016020526040902055600554610e339082610ed1565b6005556040516000906001600160a01b038416907fddf252ad1be2c89b69c2b068fc378daa952ba7f163c4a11628f55a4df523b3ef90610d9e908590611644565b600080546001600160a01b0383811673ffffffffffffffffffffffffffffffffffffffff19831681178455604051919092169283917f8be0079c531659141344cd1fd0a4f28419497f9722a3daafe3b4186f6b6457e09190a35050565b6000610cef82846116c8565b828054828255906000526020600020908101928215610f3f579160200282015b82811115610f3f578251825473ffffffffffffffffffffffffffffffffffffffff19166001600160a01b03909116178255602090920191600190910190610efd565b50610f4b929150610f8a565b5090565b828054828255906000526020600020908101928215610f3f579160200282015b82811115610f3f578251825591602001919060010190610f6f565b5b80821115610f4b5760008155600101610f8b565b80356001600160a01b038116811461077757600080fd5b600060208284031215610fc7578081fd5b610cef82610f9f565b60008060408385031215610fe2578081fd5b610feb83610f9f565b9150610ff960208401610f9f565b90509250929050565b600080600060608486031215611016578081fd5b61101f84610f9f565b925061102d60208501610f9f565b9150604084013590509250925092565b6000806040838503121561104f578182fd5b61105883610f9f565b9150602083013561106881611761565b809150509250929050565b60008060408385031215611085578182fd5b61108e83610f9f565b946020939093013593505050565b600060208083850312156110ae578182fd5b823567ffffffffffffffff8111156110c4578283fd5b8301601f810185136110d4578283fd5b80356110e76110e28261168c565b61165b565b8181528381019083850185840285018601891015611103578687fd5b8694505b8385101561112c5761111881610f9f565b835260019490940193918501918501611107565b50979650505050505050565b6000602080838503121561114a578182fd5b823567ffffffffffffffff811115611160578283fd5b8301601f81018513611170578283fd5b803561117e6110e28261168c565b818152838101908385018584028501860189101561119a578687fd5b8694505b8385101561112c57803583526001949094019391850191850161119e565b6000602082840312156111cd578081fd5b8135610cef81611761565b6000602082840312156111e9578081fd5b8151610cef81611761565b600060208284031215611205578081fd5b5035919050565b6001600160a01b0391909116815260200190565b6001600160a01b03929092168252602082015260400190565b901515815260200190565b6000602080835283518082850152825b8181101561127057858101830151858201604001528201611254565b818111156112815783604083870101525b50601f01601f1916929092016040019392505050565b60208082526023908201527f45524332303a207472616e7366657220746f20746865207a65726f206164647260408201527f6573730000000000000000000000000000000000000000000000000000000000606082015260800190565b6020808252600b908201527f4e6f74206368616e676564000000000000000000000000000000000000000000604082015260600190565b6020808252601a908201527f596f7520617265206120626c61636b6c69737465642075736572000000000000604082015260600190565b6020808252601a908201527f43616e2774207472616e736665722057616b6120746f6b656e73000000000000604082015260600190565b60208082526026908201527f4f776e61626c653a206e6577206f776e657220697320746865207a65726f206160408201527f6464726573730000000000000000000000000000000000000000000000000000606082015260800190565b60208082526022908201527f45524332303a20617070726f766520746f20746865207a65726f20616464726560408201527f7373000000000000000000000000000000000000000000000000000000000000606082015260800190565b60208082526019908201527f4f6e6c7920636f6e74726f6c6c6572732063616e206d696e7400000000000000604082015260600190565b60208082526019908201527f4f6e6c7920636f6e74726f6c6c6572732063616e206275726e00000000000000604082015260600190565b6020808252818101527f4f776e61626c653a2063616c6c6572206973206e6f7420746865206f776e6572604082015260600190565b60208082526021908201527f45524332303a206275726e2066726f6d20746865207a65726f2061646472657360408201527f7300000000000000000000000000000000000000000000000000000000000000606082015260800190565b60208082526025908201527f45524332303a207472616e736665722066726f6d20746865207a65726f20616460408201527f6472657373000000000000000000000000000000000000000000000000000000606082015260800190565b60208082526024908201527f45524332303a20617070726f76652066726f6d20746865207a65726f2061646460408201527f7265737300000000000000000000000000000000000000000000000000000000606082015260800190565b6020808252601f908201527f45524332303a206d696e7420746f20746865207a65726f206164647265737300604082015260600190565b90815260200190565b60ff91909116815260200190565b604051601f8201601f1916810167ffffffffffffffff811182821017156116845761168461174b565b604052919050565b600067ffffffffffffffff8211156116a6576116a661174b565b5060209081020190565b600082198211156116c3576116c3611735565b500190565b6000828210156116da576116da611735565b500390565b6002810460018216806116f357607f821691505b6020821081141561171457634e487b7160e01b600052602260045260246000fd5b50919050565b600060001982141561172e5761172e611735565b5060010190565b634e487b7160e01b600052601160045260246000fd5b634e487b7160e01b600052604160045260246000fd5b8015158114610a8a57600080fdfe45524332303a206275726e20616d6f756e7420657863656564732062616c616e636545524332303a207472616e7366657220616d6f756e7420657863656564732062616c616e636545524332303a207472616e7366657220616d6f756e74206578636565647320616c6c6f77616e636545524332303a2064656372656173656420616c6c6f77616e63652062656c6f77207a65726fa26469706673582212203652761054d9c909910b6363a18b2743134cbb4e7a983a4f93b333199a48ca1f64736f6c63430008010033",
  "linkReferences": {},
  "deployedLinkReferences": {}
}